{
  "_format": "hh-sol-artifact-1",
  "contractName": "ArbitrageQS",
  "sourceName": "contracts/ArbitrageQS.sol",
  "abi": [
    {
      "inputs": [],
      "name": "balancerVault",
      "outputs": [
        {
          "internalType": "address",
          "name": "",
          "type": "address"
        }
      ],
      "stateMutability": "view",
      "type": "function"
    },
    {
      "inputs": [
        {
          "internalType": "address",
          "name": "pool",
          "type": "address"
        }
      ],
      "name": "balancesQsPool",
      "outputs": [
        {
          "components": [
            {
              "internalType": "uint256",
              "name": "reserve0",
              "type": "uint256"
            },
            {
              "internalType": "uint256",
              "name": "reserve1",
              "type": "uint256"
            },
            {
              "internalType": "uint256",
              "name": "reserve0Normalized",
              "type": "uint256"
            },
            {
              "internalType": "uint256",
              "name": "reserve1Normalized",
              "type": "uint256"
            }
          ],
          "internalType": "struct ArbitrageQS.Balances",
          "name": "",
          "type": "tuple"
        }
      ],
      "stateMutability": "view",
      "type": "function"
    },
    {
      "inputs": [],
      "name": "changePriceBoundDenominator",
      "outputs": [
        {
          "internalType": "uint256",
          "name": "",
          "type": "uint256"
        }
      ],
      "stateMutability": "view",
      "type": "function"
    },
    {
      "inputs": [
        {
          "components": [
            {
              "internalType": "address",
              "name": "qsPool",
              "type": "address"
            },
            {
              "internalType": "address",
              "name": "u3Pool",
              "type": "address"
            },
            {
              "internalType": "bool",
              "name": "isUsdcLeft",
              "type": "bool"
            },
            {
              "internalType": "address",
              "name": "usdc",
              "type": "address"
            },
            {
              "internalType": "address",
              "name": "xToken",
              "type": "address"
            },
            {
              "internalType": "address",
              "name": "usdPlus",
              "type": "address"
            },
            {
              "internalType": "uint256",
              "name": "lowerChangePriceBound",
              "type": "uint256"
            },
            {
              "internalType": "uint256",
              "name": "upperChangePriceBound",
              "type": "uint256"
            },
            {
              "internalType": "address",
              "name": "qsRouter",
              "type": "address"
            },
            {
              "internalType": "address",
              "name": "u3Router",
              "type": "address"
            }
          ],
          "internalType": "struct ArbitrageQS.Params",
          "name": "params",
          "type": "tuple"
        }
      ],
      "name": "fix",
      "outputs": [],
      "stateMutability": "nonpayable",
      "type": "function"
    },
    {
      "inputs": [
        {
          "components": [
            {
              "internalType": "address",
              "name": "qsPool",
              "type": "address"
            },
            {
              "internalType": "address",
              "name": "u3Pool",
              "type": "address"
            },
            {
              "internalType": "bool",
              "name": "isUsdcLeft",
              "type": "bool"
            },
            {
              "internalType": "address",
              "name": "usdc",
              "type": "address"
            },
            {
              "internalType": "address",
              "name": "xToken",
              "type": "address"
            },
            {
              "internalType": "address",
              "name": "usdPlus",
              "type": "address"
            },
            {
              "internalType": "uint256",
              "name": "lowerChangePriceBound",
              "type": "uint256"
            },
            {
              "internalType": "uint256",
              "name": "upperChangePriceBound",
              "type": "uint256"
            },
            {
              "internalType": "address",
              "name": "qsRouter",
              "type": "address"
            },
            {
              "internalType": "address",
              "name": "u3Router",
              "type": "address"
            }
          ],
          "internalType": "struct ArbitrageQS.Params",
          "name": "params",
          "type": "tuple"
        }
      ],
      "name": "fixByFlash",
      "outputs": [],
      "stateMutability": "nonpayable",
      "type": "function"
    },
    {
      "inputs": [
        {
          "components": [
            {
              "internalType": "address",
              "name": "qsPool",
              "type": "address"
            },
            {
              "internalType": "address",
              "name": "u3Pool",
              "type": "address"
            },
            {
              "internalType": "bool",
              "name": "isUsdcLeft",
              "type": "bool"
            },
            {
              "internalType": "address",
              "name": "usdc",
              "type": "address"
            },
            {
              "internalType": "address",
              "name": "xToken",
              "type": "address"
            },
            {
              "internalType": "address",
              "name": "usdPlus",
              "type": "address"
            },
            {
              "internalType": "uint256",
              "name": "lowerChangePriceBound",
              "type": "uint256"
            },
            {
              "internalType": "uint256",
              "name": "upperChangePriceBound",
              "type": "uint256"
            },
            {
              "internalType": "address",
              "name": "qsRouter",
              "type": "address"
            },
            {
              "internalType": "address",
              "name": "u3Router",
              "type": "address"
            }
          ],
          "internalType": "struct ArbitrageQS.Params",
          "name": "params",
          "type": "tuple"
        }
      ],
      "name": "getFixParams",
      "outputs": [
        {
          "components": [
            {
              "internalType": "bool",
              "name": "skip",
              "type": "bool"
            },
            {
              "internalType": "bool",
              "name": "useXtoUsdc",
              "type": "bool"
            },
            {
              "internalType": "address[3]",
              "name": "tokens",
              "type": "address[3]"
            },
            {
              "internalType": "uint256[4]",
              "name": "reserves",
              "type": "uint256[4]"
            },
            {
              "internalType": "address",
              "name": "usdc",
              "type": "address"
            },
            {
              "internalType": "address",
              "name": "usdPlus",
              "type": "address"
            },
            {
              "internalType": "address",
              "name": "qsRouter",
              "type": "address"
            },
            {
              "internalType": "address",
              "name": "u3Router",
              "type": "address"
            },
            {
              "internalType": "uint256",
              "name": "usdcIn",
              "type": "uint256"
            },
            {
              "internalType": "uint256",
              "name": "usdcOut",
              "type": "uint256"
            }
          ],
          "internalType": "struct ArbitrageQS.FixParams",
          "name": "",
          "type": "tuple"
        }
      ],
      "stateMutability": "view",
      "type": "function"
    },
    {
      "inputs": [
        {
          "internalType": "uint256",
          "name": "token0Decimals",
          "type": "uint256"
        },
        {
          "internalType": "uint256",
          "name": "token1Decimals",
          "type": "uint256"
        },
        {
          "internalType": "uint160",
          "name": "sqrtRatioX96",
          "type": "uint160"
        }
      ],
      "name": "getPriceUniV3",
      "outputs": [
        {
          "internalType": "uint256",
          "name": "",
          "type": "uint256"
        }
      ],
      "stateMutability": "view",
      "type": "function"
    },
    {
      "inputs": [
        {
          "internalType": "address",
          "name": "pool",
          "type": "address"
        }
      ],
      "name": "getSampleTargetsUniV3",
      "outputs": [
        {
          "components": [
            {
              "internalType": "uint256",
              "name": "reserve0",
              "type": "uint256"
            },
            {
              "internalType": "uint256",
              "name": "reserve1",
              "type": "uint256"
            },
            {
              "internalType": "uint256",
              "name": "reserve0Normalized",
              "type": "uint256"
            },
            {
              "internalType": "uint256",
              "name": "reserve1Normalized",
              "type": "uint256"
            }
          ],
          "internalType": "struct ArbitrageQS.Balances",
          "name": "",
          "type": "tuple"
        }
      ],
      "stateMutability": "view",
      "type": "function"
    },
    {
      "inputs": [
        {
          "internalType": "contract IERC20[]",
          "name": "tokens",
          "type": "address[]"
        },
        {
          "internalType": "uint256[]",
          "name": "amounts",
          "type": "uint256[]"
        },
        {
          "internalType": "uint256[]",
          "name": "feeAmounts",
          "type": "uint256[]"
        },
        {
          "internalType": "bytes",
          "name": "userData",
          "type": "bytes"
        }
      ],
      "name": "receiveFlashLoan",
      "outputs": [],
      "stateMutability": "nonpayable",
      "type": "function"
    }
  ],
  "bytecode": "0x608060405234801561001057600080fd5b506137a8806100206000396000f3fe608060405234801561001057600080fd5b50600436106100935760003560e01c806368969d881161006657806368969d881461013e5780638c19b3cb1461015f57806394a2443e14610172578063cac5ffc61461017c578063f04f27071461019c57600080fd5b8063158274a5146100985780632edde981146100d05780634a5ddef814610116578063552d41bf1461012b575b600080fd5b6100b373ba12222222228d8ba445958a75a0704d566bf2c881565b6040516001600160a01b0390911681526020015b60405180910390f35b6100e36100de366004612c3e565b6101af565b6040516100c791908151815260208083015190820152604080830151908201526060918201519181019190915260800190565b610129610124366004612f2d565b6104bf565b005b6100e3610139366004612c3e565b6105d0565b61015161014c3660046130e6565b61092a565b6040519081526020016100c7565b61012961016d366004612f2d565b61097a565b610151620f424081565b61018f61018a366004612f2d565b610d0e565b6040516100c791906133ba565b6101296101aa366004612c78565b611500565b6101da6040518060800160405280600081526020016000815260200160008152602001600081525090565b600080836001600160a01b0316630902f1ac6040518163ffffffff1660e01b815260040160606040518083038186803b15801561021657600080fd5b505afa15801561022a573d6000803e3d6000fd5b505050506040513d601f19601f8201168201806040525081019061024e9190612fe7565b50915091506000846001600160a01b0316630dfe16816040518163ffffffff1660e01b815260040160206040518083038186803b15801561028e57600080fd5b505afa1580156102a2573d6000803e3d6000fd5b505050506040513d601f19601f820116820180604052508101906102c69190612c5b565b90506000856001600160a01b031663d21220a76040518163ffffffff1660e01b815260040160206040518083038186803b15801561030357600080fd5b505afa158015610317573d6000803e3d6000fd5b505050506040513d601f19601f8201168201806040525081019061033b9190612c5b565b90506000826001600160a01b031663313ce5676040518163ffffffff1660e01b815260040160206040518083038186803b15801561037857600080fd5b505afa15801561038c573d6000803e3d6000fd5b505050506040513d601f19601f820116820180604052508101906103b09190613114565b60ff1690506000826001600160a01b031663313ce5676040518163ffffffff1660e01b815260040160206040518083038186803b1580156103f057600080fd5b505afa158015610404573d6000803e3d6000fd5b505050506040513d601f19601f820116820180604052508101906104289190613114565b60ff169050600061043a83601261361f565b61044590600a613558565b610458906001600160701b038916613600565b9050600061046783601261361f565b61047290600a613558565b610485906001600160701b038916613600565b604080516080810182526001600160701b039a8b168152989099166020890152978701919091525050505060608201929092529392505050565b60006104ca82610d0e565b90506104d5816117ff565b60608201516040516370a0823160e01b81523060048201526001600160a01b039091169063a9059cbb90339083906370a082319060240160206040518083038186803b15801561052457600080fd5b505afa158015610538573d6000803e3d6000fd5b505050506040513d601f19601f8201168201806040525081019061055c91906130cd565b6040518363ffffffff1660e01b8152600401610579929190613279565b602060405180830381600087803b15801561059357600080fd5b505af11580156105a7573d6000803e3d6000fd5b505050506040513d601f19601f820116820180604052508101906105cb9190612e22565b505050565b6105fb6040518060800160405280600081526020016000815260200160008152602001600081525090565b6000826001600160a01b0316633850c7bd6040518163ffffffff1660e01b815260040160e06040518083038186803b15801561063657600080fd5b505afa15801561064a573d6000803e3d6000fd5b505050506040513d601f19601f8201168201806040525081019061066e9190613037565b50505050505090506000836001600160a01b0316630dfe16816040518163ffffffff1660e01b815260040160206040518083038186803b1580156106b157600080fd5b505afa1580156106c5573d6000803e3d6000fd5b505050506040513d601f19601f820116820180604052508101906106e99190612c5b565b90506000846001600160a01b031663d21220a76040518163ffffffff1660e01b815260040160206040518083038186803b15801561072657600080fd5b505afa15801561073a573d6000803e3d6000fd5b505050506040513d601f19601f8201168201806040525081019061075e9190612c5b565b90506000826001600160a01b031663313ce5676040518163ffffffff1660e01b815260040160206040518083038186803b15801561079b57600080fd5b505afa1580156107af573d6000803e3d6000fd5b505050506040513d601f19601f820116820180604052508101906107d39190613114565b60ff1690506000826001600160a01b031663313ce5676040518163ffffffff1660e01b815260040160206040518083038186803b15801561081357600080fd5b505afa158015610827573d6000803e3d6000fd5b505050506040513d601f19601f8201168201806040525081019061084b9190613114565b60ff169050600061085d83838861092a565b9050600061086c84600a613558565b61087990620f4240613600565b9050600061088884600a613558565b61089590620f4240613600565b9050670de0b6b3a76400006108aa8285613600565b6108b49190613501565b905060006108c386601261361f565b6108ce90600a613558565b6108d89084613600565b905060006108e786601261361f565b6108f290600a613558565b6108fc9084613600565b6040805160808101825295865260208601949094529284019190915250606082015298975050505050505050565b600080610938838686611874565b90506000610950828368010000000000000000611975565b9050601261096d8261096383600a613558565b600160801b611975565b93505050505b9392505050565b600061098582610d0e565b61010081015161012082015191925090818110156109ea5760405162461bcd60e51b815260206004820152601d60248201527f557364634f75742073686f756c64206265206d6f72652055736463496e00000060448201526064015b60405180910390fd5b60608401516040516370a0823160e01b81523060048201526000916001600160a01b0316906370a082319060240160206040518083038186803b158015610a3057600080fd5b505afa158015610a44573d6000803e3d6000fd5b505050506040513d601f19601f82011682018060405250810190610a6891906130cd565b9050610a9e60405180604001604052806012815260200171030b6b7bab73a2ab9b231a132b337b9329d160751b81525082611af1565b6000848233604051602001610ab5939291906133c9565b60408051601f19818403018152600180845283830190925292506000919060208083019080368337019050509050856080015181600081518110610afb57610afb613693565b6001600160a01b03929092166020928302919091019091015260408051600180825281830190925260009181602001602082028036833701905050905086610100015181600081518110610b5157610b51613693565b6020908102919091010152604051632e1c224f60e11b815273ba12222222228d8ba445958a75a0704d566bf2c890635c38449e90610b99903090869086908990600401613292565b600060405180830381600087803b158015610bb357600080fd5b505af1158015610bc7573d6000803e3d6000fd5b5050505060608801516040516370a0823160e01b81523060048201526000916001600160a01b0316906370a082319060240160206040518083038186803b158015610c1157600080fd5b505afa158015610c25573d6000803e3d6000fd5b505050506040513d601f19601f82011682018060405250810190610c4991906130cd565b9050610c7e60405180604001604052806011815260200170030b6b7bab73a2ab9b231a0b33a32b91d1607d1b81525082611af1565b88606001516001600160a01b031663a9059cbb33836040518363ffffffff1660e01b8152600401610cb0929190613279565b602060405180830381600087803b158015610cca57600080fd5b505af1158015610cde573d6000803e3d6000fd5b505050506040513d601f19601f82011682018060405250810190610d029190612e22565b50505050505050505050565b610d1661296d565b6000610d2583600001516101af565b90506000610d3684602001516105d0565b9050610d5e60405180606001604052806024815260200161372b602491398260400151611af1565b610d84604051806060016040528060248152602001613707602491398260600151611af1565b610daa60405180606001604052806024815260200161374f602491398360400151611af1565b610dd06040518060600160405280602481526020016136e3602491398360600151611af1565b6040810151670de0b6b3a764000090610de99082613600565b9050816060015181610dfb9190613501565b9050826060015181610e0d9190613600565b9050826040015181610e1f9190613501565b9050610e506040518060400160405280600d81526020016c031b430b733b2a83934b1b29d1609d1b81525082611af1565b808560c00151108015610e6657508460e0015181105b15610efc575050604080516101408101825260018152600060208083018290528351606080820186528382528183018490528186018490528486019190915284516080808201875284825292810184905294850183905284810183905283019390935291810182905260a0810182905260c0810182905260e0810182905261010081018290526101208101919091529392505050565b610f3f6040518060400160405280601a81526020017f62616c616e6365735461726765742e72657365727665303a20200000000000008152508360000151611af1565b610f826040518060400160405280601a81526020017f62616c616e6365735461726765742e72657365727665313a20200000000000008152508360200151611af1565b610fc56040518060400160405280601a81526020017f62616c616e63657343757272656e742e72657365727665303a200000000000008152508460000151611af1565b6110086040518060400160405280601a81526020017f62616c616e63657343757272656e742e72657365727665313a200000000000008152508460200151611af1565b825160208085015184519185015190919061102161296d565b89604001511561124957670de0b6b3a76400008610156111425760405180610140016040528060001515815260200160011515815260200160405180606001604052808d606001516001600160a01b03166001600160a01b031681526020018d608001516001600160a01b03166001600160a01b031681526020018d60a001516001600160a01b03166001600160a01b0316815250815260200160405180608001604052808781526020018881526020018581526020018681525081526020018b606001516001600160a01b031681526020018b60a001516001600160a01b031681526020018b61010001516001600160a01b031681526020018b61012001516001600160a01b031681526020016000815260200160008152509050611463565b60405180610140016040528060001515815260200160001515815260200160405180606001604052808d60a001516001600160a01b03166001600160a01b031681526020018d608001516001600160a01b03166001600160a01b031681526020018d606001516001600160a01b03166001600160a01b0316815250815260200160405180608001604052808881526020018781526020018681526020018581525081526020018b606001516001600160a01b031681526020018b60a001516001600160a01b031681526020018b61010001516001600160a01b031681526020018b61012001516001600160a01b031681526020016000815260200160008152509050611463565b670de0b6b3a76400008610156113605760405180610140016040528060001515815260200160001515815260200160405180606001604052808d60a001516001600160a01b03166001600160a01b031681526020018d608001516001600160a01b03166001600160a01b031681526020018d606001516001600160a01b03166001600160a01b0316815250815260200160405180608001604052808781526020018881526020018581526020018681525081526020018b606001516001600160a01b031681526020018b60a001516001600160a01b031681526020018b61010001516001600160a01b031681526020018b61012001516001600160a01b031681526020016000815260200160008152509050611463565b60405180610140016040528060001515815260200160011515815260200160405180606001604052808d606001516001600160a01b03166001600160a01b031681526020018d608001516001600160a01b03166001600160a01b031681526020018d60a001516001600160a01b03166001600160a01b0316815250815260200160405180608001604052808881526020018781526020018681526020018581525081526020018b606001516001600160a01b031681526020018b60a001516001600160a01b031681526020018b61010001516001600160a01b031681526020018b61012001516001600160a01b0316815260200160008152602001600081525090505b8060200151156114b257604081810151805160208083015192840151606080870151805193810151968101519101516114a196889694929091611b3a565b6101208301526101008201526114f3565b604081810151805160208083015192840151606080870151805193810151968101519101516114e696889694929091611bc9565b6101208301526101008201525b9998505050505050505050565b835160011461155b5760405162461bcd60e51b815260206004820152602160248201527f4f6e6c79206f6e6520746f6b656e2073686f756c6420626520696e20666c61736044820152600d60fb1b60648201526084016109e1565b6000806000838060200190518101906115749190612e3f565b92509250925082608001516001600160a01b03168760008151811061159b5761159b613693565b60200260200101516001600160a01b0316146116045760405162461bcd60e51b815260206004820152602260248201527f4f6e6c79205553444320746f6b656e2073686f756c6420626520696e20666c616044820152610e6d60f31b60648201526084016109e1565b8460008151811061161757611617613693565b602002602001015160001461166e5760405162461bcd60e51b815260206004820152601860248201527f4f6e6c79207a65726f206665652061636365707461626c65000000000000000060448201526064016109e1565b60808301516040516370a0823160e01b81523060048201526000916001600160a01b0316906370a082319060240160206040518083038186803b1580156116b457600080fd5b505afa1580156116c8573d6000803e3d6000fd5b505050506040513d601f19601f820116820180604052508101906116ec91906130cd565b9050828461010001516116ff91906134e9565b81101561174e5760405162461bcd60e51b815260206004820152601d60248201527f4e6f7420656e6f75676820757364632073656e6420746f20666c61736800000060448201526064016109e1565b611757846117ff565b83608001516001600160a01b031663a9059cbb73ba12222222228d8ba445958a75a0704d566bf2c88661010001516040518363ffffffff1660e01b81526004016117a2929190613279565b602060405180830381600087803b1580156117bc57600080fd5b505af11580156117d0573d6000803e3d6000fd5b505050506040513d601f19601f820116820180604052508101906117f49190612e22565b505050505050505050565b806020015115611840576040818101518051602080830151928401516060808701518051938101519681015191015161183d96889694929091611c41565b50565b6040818101518051602080830151928401516060808701518051938101519681015191015161183d96889694929091611d21565b600081831461196657818311156118fa5760006118918484611dfb565b90506118bc6118a1826002611e60565b6118ac90600a613558565b6001600160a01b03871690611ebb565b91506118c9600282613636565b600114156118f4576118f1827003298b075b4b6a5240945790619b37fd4a600160801b611975565b91505b50610973565b60006119068385611dfb565b9050611931611916826002611e60565b61192190600a613558565b6001600160a01b03871690611e60565b915061193e600282613636565b600114156118f4576118f182600160801b7003298b075b4b6a5240945790619b37fd4a611975565b5050506001600160a01b031690565b6000808060001985870985870292508281108382030391505080600014156119af57600084116119a457600080fd5b508290049050610973565b8084116119bb57600080fd5b600084868809808403938111909203919050846000816119da8161364a565b1696879004969485900494905060008190038190046001016119fc8186613600565b909517946000611a0d896003613600565b6002189050611a1c818a613600565b611a2790600261361f565b611a319082613600565b9050611a3d818a613600565b611a4890600261361f565b611a529082613600565b9050611a5e818a613600565b611a6990600261361f565b611a739082613600565b9050611a7f818a613600565b611a8a90600261361f565b611a949082613600565b9050611aa0818a613600565b611aab90600261361f565b611ab59082613600565b9050611ac1818a613600565b611acc90600261361f565b611ad69082613600565b9050611ae28188613600565b9b9a5050505050505050505050565b611b368282604051602401611b0792919061332e565b60408051601f198184030181529190526020810180516001600160e01b03166309710a9d60e41b179052611f3a565b5050565b6000806000611b4b87878787611f5b565b9050611b7460405180604001604052806005815260200164030a4b71d160dd1b81525082611af1565b6000611b8a86611b848488611ebb565b90611e60565b9050611b9c6064611b84836065611ebb565b9050806000611bb4611baf858c8c612015565b612064565b919e919d50909b505050505050505050505050565b6000806000611bda87878787611f5b565b9050611c0360405180604001604052806005815260200164030a4b71d160dd1b81525082611af1565b6000611c0e82612064565b90506000611c1d828a8a612015565b9050611c2d86611b84838a611ebb565b919d919c50909a5050505050505050505050565b6000611c4f85858585611f5b565b9050611c7860405180604001604052806005815260200164030a4b71d160dd1b81525082611af1565b6000611c8884611b848486611ebb565b9050611c9a6064611b84836065611ebb565b9050806000611cad611baf858a8a612015565b905066038d7ea4c68000808511611d025760405162461bcd60e51b815260206004820152601960248201527861496e20746f6f206c6f772c20736b697020616374696f6e7360381b60448201526064016109e1565b84611d118e8e8e8e8986612078565b5050505050505050505050505050565b6000611d2f85858585611f5b565b9050611d5860405180604001604052806005815260200164030a4b71d160dd1b81525082611af1565b6000611d6382612064565b90506000611d72828888612015565b9050611d8284611b848388611ebb565b90506103e8808411611dd25760405162461bcd60e51b815260206004820152601960248201527861496e20746f6f206c6f772c20736b697020616374696f6e7360381b60448201526064016109e1565b6000611ddd85612064565b9050611dec8d8d8d8d856120a5565b50505050505050505050505050565b600082821115611e4d5760405162461bcd60e51b815260206004820152601e60248201527f536166654d6174683a207375627472616374696f6e206f766572666c6f77000060448201526064016109e1565b611e57828461361f565b90505b92915050565b6000808211611eb15760405162461bcd60e51b815260206004820152601a60248201527f536166654d6174683a206469766973696f6e206279207a65726f00000000000060448201526064016109e1565b611e578284613501565b600082611eca57506000611e5a565b6000611ed68385613600565b905082611ee38583613501565b14611e575760405162461bcd60e51b815260206004820152602160248201527f536166654d6174683a206d756c7469706c69636174696f6e206f766572666c6f6044820152607760f81b60648201526084016109e1565b80516a636f6e736f6c652e6c6f67602083016000808483855afa5050505050565b600080611f7b83611b8486611f7589818c623cda20611ebb565b90611ebb565b90506000611f8e87611f75816009611ebb565b90506000611f9e8861175e611ebb565b90506000611fc382611fbd620f2ad9611fb788886120d1565b906120d1565b90611dfb565b90506000611fd082612130565b90506000611fe08b6107cd611ebb565b90506000611ff482611fbd6103e5866120d1565b90506000612004826107ca611e60565b9d9c50505050505050505050505050565b60006103e56103e8826120288784611ebb565b905060006120368287611ebb565b9050600061204883611fb78a87611ebb565b905060006120568383611e60565b9a9950505050505050505050565b6000611e5a61270c611b8484612710611ebb565b60006120878787878587612189565b905060006120978887878661235b565b90506000610d028983612518565b60006120b186836126a9565b905060006120c18787878561235b565b905060006117f4888787856127df565b6000806120de83856134e9565b905083811015611e575760405162461bcd60e51b815260206004820152601b60248201527f536166654d6174683a206164646974696f6e206f766572666c6f77000000000060448201526064016109e1565b60008060026121408460016134e9565b61214a9190613501565b90508291505b81811015612183579050806002816121688186613501565b61217291906134e9565b61217c9190613501565b9050612150565b50919050565b60e085015160405163095ea7b360e01b81526000916001600160a01b0387169163095ea7b3916121bd918690600401613279565b602060405180830381600087803b1580156121d757600080fd5b505af11580156121eb573d6000803e3d6000fd5b505050506040513d601f19601f8201168201806040525081019061220f9190612e22565b5061224f6040518060400160405280601b81526020017f7377617055334f757420616d6f756e74496e4d6178696d756d3a20000000000081525083611af1565b61228660405180604001604052806015815260200174039bbb0b82a99a7baba1030b6b7bab73a27baba1d1605d1b81525084611af1565b60408051610100810182526001600160a01b03808816825286811660208301526101f482840152306060830152600019608083015260a0820186905260c08201859052600060e08084018290528a01519351631b67c43360e31b81529293909291169063db3e2198906122fd908590600401613350565b602060405180830381600087803b15801561231757600080fd5b505af115801561232b573d6000803e3d6000fd5b505050506040513d601f19601f8201168201806040525081019061234f91906130cd565b98975050505050505050565b60c084015160405163095ea7b360e01b81526000916001600160a01b0386169163095ea7b39161238f918690600401613279565b602060405180830381600087803b1580156123a957600080fd5b505af11580156123bd573d6000803e3d6000fd5b505050506040513d601f19601f820116820180604052508101906123e19190612e22565b50604080516002808252606082018352600092602083019080368337019050509050848160008151811061241757612417613693565b60200260200101906001600160a01b031690816001600160a01b031681525050838160018151811061244b5761244b613693565b6001600160a01b03928316602091820292909201015260c08701516040516338ed173960e01b815260009291909116906338ed173990612499908790859087903090600019906004016133f9565b600060405180830381600087803b1580156124b357600080fd5b505af11580156124c7573d6000803e3d6000fd5b505050506040513d6000823e601f3d908101601f191682016040526124ef9190810190612d8a565b90508060018151811061250457612504613693565b602002602001015192505050949350505050565b6000808360a001516001600160a01b031663d2f7265a6040518163ffffffff1660e01b8152600401602060405180830381600087803b15801561255a57600080fd5b505af115801561256e573d6000803e3d6000fd5b505050506040513d601f19601f820116820180604052508101906125929190612c5b565b60a085015160405163095ea7b360e01b81529192506001600160a01b03169063095ea7b3906125c79084908790600401613279565b602060405180830381600087803b1580156125e157600080fd5b505af11580156125f5573d6000803e3d6000fd5b505050506040513d601f19601f820116820180604052508101906126199190612e22565b5060808401516040516301e9a69560e41b81526000916001600160a01b03841691631e9a69509161264e918890600401613279565b602060405180830381600087803b15801561266857600080fd5b505af115801561267c573d6000803e3d6000fd5b505050506040513d601f19601f820116820180604052508101906126a091906130cd565b95945050505050565b6000808360a001516001600160a01b031663d2f7265a6040518163ffffffff1660e01b8152600401602060405180830381600087803b1580156126eb57600080fd5b505af11580156126ff573d6000803e3d6000fd5b505050506040513d601f19601f820116820180604052508101906127239190612c5b565b608085015160405163095ea7b360e01b81529192506001600160a01b03169063095ea7b3906127589084908790600401613279565b602060405180830381600087803b15801561277257600080fd5b505af1158015612786573d6000803e3d6000fd5b505050506040513d601f19601f820116820180604052508101906127aa9190612e22565b50608084015160405163cce7ec1360e01b81526000916001600160a01b0384169163cce7ec139161264e918890600401613279565b60e084015160405163095ea7b360e01b81526000916001600160a01b0386169163095ea7b391612813918690600401613279565b602060405180830381600087803b15801561282d57600080fd5b505af1158015612841573d6000803e3d6000fd5b505050506040513d601f19601f820116820180604052508101906128659190612e22565b5061289960405180604001604052806011815260200170039bbb0b82a999030b6b7bab73a24b71d1607d1b81525083611af1565b60408051610100810182526001600160a01b03808716825285811660208301526101f482840152306060830152600019608083015260a08201859052600060c0830181905260e0808401829052890151935163414bf38960e01b81529293909291169063414bf38990612910908590600401613350565b602060405180830381600087803b15801561292a57600080fd5b505af115801561293e573d6000803e3d6000fd5b505050506040513d601f19601f8201168201806040525081019061296291906130cd565b979650505050505050565b60408051610140810182526000808252602082015290810161298d6129ca565b815260200161299a6129e8565b815260006020820181905260408201819052606082018190526080820181905260a0820181905260c09091015290565b60405180606001604052806003906020820280368337509192915050565b60405180608001604052806004906020820280368337509192915050565b8035612a11816136bf565b919050565b8051612a11816136bf565b600082601f830112612a3257600080fd5b6040516060810181811067ffffffffffffffff82111715612a5557612a556136a9565b604052808360608101861015612a6a57600080fd5b60005b6003811015612a96578151612a81816136bf565b83526020928301929190910190600101612a6d565b509195945050505050565b600082601f830112612ab257600080fd5b6040516080810181811067ffffffffffffffff82111715612ad557612ad56136a9565b604052808360808101861015612aea57600080fd5b60005b6004811015612a96578151835260209283019290910190600101612aed565b600082601f830112612b1d57600080fd5b81356020612b32612b2d836134c5565b613494565b80838252828201915082860187848660051b8901011115612b5257600080fd5b60005b85811015612b7157813584529284019290840190600101612b55565b5090979650505050505050565b8035612a11816136d4565b8051612a11816136d4565b600082601f830112612ba557600080fd5b813567ffffffffffffffff811115612bbf57612bbf6136a9565b612bd2601f8201601f1916602001613494565b818152846020838601011115612be757600080fd5b816020850160208301376000918101602001919091529392505050565b80516001600160701b0381168114612a1157600080fd5b805161ffff81168114612a1157600080fd5b805160ff81168114612a1157600080fd5b600060208284031215612c5057600080fd5b8135611e57816136bf565b600060208284031215612c6d57600080fd5b8151611e57816136bf565b60008060008060808587031215612c8e57600080fd5b843567ffffffffffffffff80821115612ca657600080fd5b818701915087601f830112612cba57600080fd5b81356020612cca612b2d836134c5565b8083825282820191508286018c848660051b8901011115612cea57600080fd5b600096505b84871015612d16578035612d02816136bf565b835260019690960195918301918301612cef565b5098505088013592505080821115612d2d57600080fd5b612d3988838901612b0c565b94506040870135915080821115612d4f57600080fd5b612d5b88838901612b0c565b93506060870135915080821115612d7157600080fd5b50612d7e87828801612b94565b91505092959194509250565b60006020808385031215612d9d57600080fd5b825167ffffffffffffffff811115612db457600080fd5b8301601f81018513612dc557600080fd5b8051612dd3612b2d826134c5565b80828252848201915084840188868560051b8701011115612df357600080fd5b600094505b83851015612e16578051835260019490940193918501918501612df8565b50979650505050505050565b600060208284031215612e3457600080fd5b8151611e57816136d4565b6000806000838503610220811215612e5657600080fd5b6101e080821215612e6657600080fd5b612e6e61346a565b9150612e7986612b89565b8252612e8760208701612b89565b6020830152612e998760408801612a21565b6040830152612eab8760a08801612aa1565b6060830152610120612ebe818801612a16565b6080840152612ed06101408801612a16565b60a0840152612ee26101608801612a16565b60c0840152612ef46101808801612a16565b60e08401526101a08701516101008401526101c0870151908301528501519093509150612f246102008501612a16565b90509250925092565b60006101408284031215612f4057600080fd5b612f4861346a565b612f5183612a06565b8152612f5f60208401612a06565b6020820152612f7060408401612b7e565b6040820152612f8160608401612a06565b6060820152612f9260808401612a06565b6080820152612fa360a08401612a06565b60a082015260c083013560c082015260e083013560e0820152610100612fca818501612a06565b90820152610120612fdc848201612a06565b908201529392505050565b600080600060608486031215612ffc57600080fd5b61300584612c04565b925061301360208501612c04565b9150604084015163ffffffff8116811461302c57600080fd5b809150509250925092565b600080600080600080600060e0888a03121561305257600080fd5b875161305d816136bf565b8097505060208801518060020b811461307557600080fd5b955061308360408901612c1b565b945061309160608901612c1b565b935061309f60808901612c1b565b92506130ad60a08901612c2d565b915060c08801516130bd816136d4565b8091505092959891949750929550565b6000602082840312156130df57600080fd5b5051919050565b6000806000606084860312156130fb57600080fd5b8335925060208401359150604084013561302c816136bf565b60006020828403121561312657600080fd5b611e5782612c2d565b8060005b600381101561315b5781516001600160a01b0316845260209384019390910190600101613133565b50505050565b8060005b600481101561315b578151845260209384019390910190600101613165565b6000815180845260005b818110156131aa5760208185018101518683018201520161318e565b818111156131bc576000602083870101525b50601f01601f19169290920160200192915050565b80511515825260208101516131ea602084018215159052565b5060408101516131fd604084018261312f565b50606081015161321060a0840182613161565b50608081015161012061322d818501836001600160a01b03169052565b60a08301516001600160a01b0390811661014086015260c0840151811661016086015260e0840151166101808501526101008301516101a0850152909101516101c09092019190915250565b6001600160a01b03929092168252602082015260400190565b6001600160a01b0385811682526080602080840182905286519184018290526000928782019290919060a0860190855b818110156132e05785518516835294830194918301916001016132c2565b5050858103604087015287518082529082019350915080870160005b83811015613318578151855293820193908201906001016132fc565b5050505082810360608401526129628185613184565b6040815260006133416040830185613184565b90508260208301529392505050565b6101008101611e5a828480516001600160a01b03908116835260208083015182169084015260408083015162ffffff16908401526060808301518216908401526080808301519084015260a0828101519084015260c0808301519084015260e09182015116910152565b6101e08101611e5a82846131d1565b61022081016133d882866131d1565b6101e08201939093526001600160a01b039190911661020090910152919050565b600060a082018783526020878185015260a0604085015281875180845260c086019150828901935060005b818110156134495784516001600160a01b031683529383019391830191600101613424565b50506001600160a01b03969096166060850152505050608001529392505050565b604051610140810167ffffffffffffffff8111828210171561348e5761348e6136a9565b60405290565b604051601f8201601f1916810167ffffffffffffffff811182821017156134bd576134bd6136a9565b604052919050565b600067ffffffffffffffff8211156134df576134df6136a9565b5060051b60200190565b600082198211156134fc576134fc613667565b500190565b6000826135105761351061367d565b500490565b600181815b8085111561355057816000190482111561353657613536613667565b8085161561354357918102915b93841c939080029061351a565b509250929050565b6000611e57838360008261356e57506001611e5a565b8161357b57506000611e5a565b8160018114613591576002811461359b576135b7565b6001915050611e5a565b60ff8411156135ac576135ac613667565b50506001821b611e5a565b5060208310610133831016604e8410600b84101617156135da575081810a611e5a565b6135e48383613515565b80600019048211156135f8576135f8613667565b029392505050565b600081600019048311821515161561361a5761361a613667565b500290565b60008282101561363157613631613667565b500390565b6000826136455761364561367d565b500690565b6000600160ff1b82141561366057613660613667565b5060000390565b634e487b7160e01b600052601160045260246000fd5b634e487b7160e01b600052601260045260246000fd5b634e487b7160e01b600052603260045260246000fd5b634e487b7160e01b600052604160045260246000fd5b6001600160a01b038116811461183d57600080fd5b801515811461183d57600080fdfe62616c616e63657343757272656e742e72657365727665314e6f726d616c697a65643a2062616c616e6365735461726765742e72657365727665314e6f726d616c697a65643a202062616c616e6365735461726765742e72657365727665304e6f726d616c697a65643a202062616c616e63657343757272656e742e72657365727665304e6f726d616c697a65643a20a26469706673582212209039efe6d7fa3b1a2f9695b4174bd9e2527d31c1355e619b24a609ff3f85e58b64736f6c63430008070033",
  "linkReferences": {},
  "deployedLinkReferences": {}
}