{
  "_format": "hh-sol-artifact-1",
  "contractName": "ArbitrageQS",
  "sourceName": "contracts/ArbitrageQS.sol",
  "abi": [
    {
      "inputs": [],
      "name": "balancerVault",
      "outputs": [
        {
          "internalType": "address",
          "name": "",
          "type": "address"
        }
      ],
      "stateMutability": "view",
      "type": "function"
    },
    {
      "inputs": [
        {
          "internalType": "address",
          "name": "pool",
          "type": "address"
        }
      ],
      "name": "balancesQsPool",
      "outputs": [
        {
          "components": [
            {
              "internalType": "uint256",
              "name": "reserve0",
              "type": "uint256"
            },
            {
              "internalType": "uint256",
              "name": "reserve1",
              "type": "uint256"
            },
            {
              "internalType": "uint256",
              "name": "reserve0Normalized",
              "type": "uint256"
            },
            {
              "internalType": "uint256",
              "name": "reserve1Normalized",
              "type": "uint256"
            }
          ],
          "internalType": "struct IArbitrageQS.Balances",
          "name": "",
          "type": "tuple"
        }
      ],
      "stateMutability": "view",
      "type": "function"
    },
    {
      "inputs": [],
      "name": "changePriceBoundDenominator",
      "outputs": [
        {
          "internalType": "uint256",
          "name": "",
          "type": "uint256"
        }
      ],
      "stateMutability": "view",
      "type": "function"
    },
    {
      "inputs": [
        {
          "components": [
            {
              "internalType": "address",
              "name": "qsPool",
              "type": "address"
            },
            {
              "internalType": "address",
              "name": "u3Pool",
              "type": "address"
            },
            {
              "internalType": "bool",
              "name": "isUsdcLeft",
              "type": "bool"
            },
            {
              "internalType": "address",
              "name": "usdc",
              "type": "address"
            },
            {
              "internalType": "address",
              "name": "xToken",
              "type": "address"
            },
            {
              "internalType": "address",
              "name": "usdPlus",
              "type": "address"
            },
            {
              "internalType": "uint256",
              "name": "lowerChangePriceBound",
              "type": "uint256"
            },
            {
              "internalType": "uint256",
              "name": "upperChangePriceBound",
              "type": "uint256"
            },
            {
              "internalType": "address",
              "name": "qsRouter",
              "type": "address"
            },
            {
              "internalType": "address",
              "name": "u3Router",
              "type": "address"
            }
          ],
          "internalType": "struct IArbitrageQS.Params",
          "name": "params",
          "type": "tuple"
        }
      ],
      "name": "fix",
      "outputs": [],
      "stateMutability": "nonpayable",
      "type": "function"
    },
    {
      "inputs": [
        {
          "components": [
            {
              "internalType": "address",
              "name": "qsPool",
              "type": "address"
            },
            {
              "internalType": "address",
              "name": "u3Pool",
              "type": "address"
            },
            {
              "internalType": "bool",
              "name": "isUsdcLeft",
              "type": "bool"
            },
            {
              "internalType": "address",
              "name": "usdc",
              "type": "address"
            },
            {
              "internalType": "address",
              "name": "xToken",
              "type": "address"
            },
            {
              "internalType": "address",
              "name": "usdPlus",
              "type": "address"
            },
            {
              "internalType": "uint256",
              "name": "lowerChangePriceBound",
              "type": "uint256"
            },
            {
              "internalType": "uint256",
              "name": "upperChangePriceBound",
              "type": "uint256"
            },
            {
              "internalType": "address",
              "name": "qsRouter",
              "type": "address"
            },
            {
              "internalType": "address",
              "name": "u3Router",
              "type": "address"
            }
          ],
          "internalType": "struct IArbitrageQS.Params",
          "name": "params",
          "type": "tuple"
        }
      ],
      "name": "fixByFlash",
      "outputs": [],
      "stateMutability": "nonpayable",
      "type": "function"
    },
    {
      "inputs": [
        {
          "components": [
            {
              "internalType": "address",
              "name": "qsPool",
              "type": "address"
            },
            {
              "internalType": "address",
              "name": "u3Pool",
              "type": "address"
            },
            {
              "internalType": "bool",
              "name": "isUsdcLeft",
              "type": "bool"
            },
            {
              "internalType": "address",
              "name": "usdc",
              "type": "address"
            },
            {
              "internalType": "address",
              "name": "xToken",
              "type": "address"
            },
            {
              "internalType": "address",
              "name": "usdPlus",
              "type": "address"
            },
            {
              "internalType": "uint256",
              "name": "lowerChangePriceBound",
              "type": "uint256"
            },
            {
              "internalType": "uint256",
              "name": "upperChangePriceBound",
              "type": "uint256"
            },
            {
              "internalType": "address",
              "name": "qsRouter",
              "type": "address"
            },
            {
              "internalType": "address",
              "name": "u3Router",
              "type": "address"
            }
          ],
          "internalType": "struct IArbitrageQS.Params",
          "name": "params",
          "type": "tuple"
        }
      ],
      "name": "getFixParams",
      "outputs": [
        {
          "components": [
            {
              "internalType": "bool",
              "name": "skip",
              "type": "bool"
            },
            {
              "internalType": "bool",
              "name": "useXtoUsdc",
              "type": "bool"
            },
            {
              "components": [
                {
                  "internalType": "address",
                  "name": "token0",
                  "type": "address"
                },
                {
                  "internalType": "address",
                  "name": "token1",
                  "type": "address"
                },
                {
                  "internalType": "address",
                  "name": "token2",
                  "type": "address"
                }
              ],
              "internalType": "struct IArbitrageQS.Tokens",
              "name": "tokens",
              "type": "tuple"
            },
            {
              "components": [
                {
                  "internalType": "uint256",
                  "name": "reserve0",
                  "type": "uint256"
                },
                {
                  "internalType": "uint256",
                  "name": "reserve1",
                  "type": "uint256"
                },
                {
                  "internalType": "uint256",
                  "name": "reserve2",
                  "type": "uint256"
                },
                {
                  "internalType": "uint256",
                  "name": "reserve3",
                  "type": "uint256"
                }
              ],
              "internalType": "struct IArbitrageQS.Reserves",
              "name": "reserves",
              "type": "tuple"
            },
            {
              "internalType": "address",
              "name": "usdc",
              "type": "address"
            },
            {
              "internalType": "address",
              "name": "usdPlus",
              "type": "address"
            },
            {
              "internalType": "address",
              "name": "qsRouter",
              "type": "address"
            },
            {
              "internalType": "address",
              "name": "u3Router",
              "type": "address"
            },
            {
              "internalType": "uint256",
              "name": "usdcIn",
              "type": "uint256"
            },
            {
              "internalType": "uint256",
              "name": "usdcOut",
              "type": "uint256"
            }
          ],
          "internalType": "struct IArbitrageQS.FixParams",
          "name": "",
          "type": "tuple"
        }
      ],
      "stateMutability": "view",
      "type": "function"
    },
    {
      "inputs": [
        {
          "internalType": "uint256",
          "name": "token0Decimals",
          "type": "uint256"
        },
        {
          "internalType": "uint256",
          "name": "token1Decimals",
          "type": "uint256"
        },
        {
          "internalType": "uint160",
          "name": "sqrtRatioX96",
          "type": "uint160"
        }
      ],
      "name": "getPriceUniV3",
      "outputs": [
        {
          "internalType": "uint256",
          "name": "",
          "type": "uint256"
        }
      ],
      "stateMutability": "view",
      "type": "function"
    },
    {
      "inputs": [
        {
          "internalType": "address",
          "name": "pool",
          "type": "address"
        }
      ],
      "name": "getSampleTargetsUniV3",
      "outputs": [
        {
          "components": [
            {
              "internalType": "uint256",
              "name": "reserve0",
              "type": "uint256"
            },
            {
              "internalType": "uint256",
              "name": "reserve1",
              "type": "uint256"
            },
            {
              "internalType": "uint256",
              "name": "reserve0Normalized",
              "type": "uint256"
            },
            {
              "internalType": "uint256",
              "name": "reserve1Normalized",
              "type": "uint256"
            }
          ],
          "internalType": "struct IArbitrageQS.Balances",
          "name": "",
          "type": "tuple"
        }
      ],
      "stateMutability": "view",
      "type": "function"
    },
    {
      "inputs": [
        {
          "internalType": "contract IERC20[]",
          "name": "tokens",
          "type": "address[]"
        },
        {
          "internalType": "uint256[]",
          "name": "amounts",
          "type": "uint256[]"
        },
        {
          "internalType": "uint256[]",
          "name": "feeAmounts",
          "type": "uint256[]"
        },
        {
          "internalType": "bytes",
          "name": "userData",
          "type": "bytes"
        }
      ],
      "name": "receiveFlashLoan",
      "outputs": [],
      "stateMutability": "nonpayable",
      "type": "function"
    }
  ],
  "bytecode": "0x608060405234801561001057600080fd5b50613710806100206000396000f3fe608060405234801561001057600080fd5b50600436106100935760003560e01c806368969d881161006657806368969d88146101185780638c19b3cb1461013957806394a2443e1461014c578063cac5ffc614610156578063f04f27071461017657600080fd5b8063158274a5146100985780632edde981146100d05780634a5ddef8146100f0578063552d41bf14610105575b600080fd5b6100b373ba12222222228d8ba445958a75a0704d566bf2c881565b6040516001600160a01b0390911681526020015b60405180910390f35b6100e36100de366004612b9b565b610189565b6040516100c7919061328d565b6101036100fe366004612e8a565b610499565b005b6100e3610113366004612b9b565b6105aa565b61012b610126366004613043565b610904565b6040519081526020016100c7565b610103610147366004612e8a565b610954565b61012b620f424081565b610169610164366004612e8a565b610ce8565b6040516100c79190613322565b610103610184366004612bd5565b61146e565b6101b46040518060800160405280600081526020016000815260200160008152602001600081525090565b600080836001600160a01b0316630902f1ac6040518163ffffffff1660e01b815260040160606040518083038186803b1580156101f057600080fd5b505afa158015610204573d6000803e3d6000fd5b505050506040513d601f19601f820116820180604052508101906102289190612f44565b50915091506000846001600160a01b0316630dfe16816040518163ffffffff1660e01b815260040160206040518083038186803b15801561026857600080fd5b505afa15801561027c573d6000803e3d6000fd5b505050506040513d601f19601f820116820180604052508101906102a09190612bb8565b90506000856001600160a01b031663d21220a76040518163ffffffff1660e01b815260040160206040518083038186803b1580156102dd57600080fd5b505afa1580156102f1573d6000803e3d6000fd5b505050506040513d601f19601f820116820180604052508101906103159190612bb8565b90506000826001600160a01b031663313ce5676040518163ffffffff1660e01b815260040160206040518083038186803b15801561035257600080fd5b505afa158015610366573d6000803e3d6000fd5b505050506040513d601f19601f8201168201806040525081019061038a9190613071565b60ff1690506000826001600160a01b031663313ce5676040518163ffffffff1660e01b815260040160206040518083038186803b1580156103ca57600080fd5b505afa1580156103de573d6000803e3d6000fd5b505050506040513d601f19601f820116820180604052508101906104029190613071565b60ff1690506000610414836012613587565b61041f90600a6134c0565b610432906001600160701b038916613568565b90506000610441836012613587565b61044c90600a6134c0565b61045f906001600160701b038916613568565b604080516080810182526001600160701b039a8b168152989099166020890152978701919091525050505060608201929092529392505050565b60006104a482610ce8565b90506104af8161176d565b60608201516040516370a0823160e01b81523060048201526001600160a01b039091169063a9059cbb90339083906370a082319060240160206040518083038186803b1580156104fe57600080fd5b505afa158015610512573d6000803e3d6000fd5b505050506040513d601f19601f82011682018060405250810190610536919061302a565b6040518363ffffffff1660e01b81526004016105539291906131b6565b602060405180830381600087803b15801561056d57600080fd5b505af1158015610581573d6000803e3d6000fd5b505050506040513d601f19601f820116820180604052508101906105a59190612d7f565b505050565b6105d56040518060800160405280600081526020016000815260200160008152602001600081525090565b6000826001600160a01b0316633850c7bd6040518163ffffffff1660e01b815260040160e06040518083038186803b15801561061057600080fd5b505afa158015610624573d6000803e3d6000fd5b505050506040513d601f19601f820116820180604052508101906106489190612f94565b50505050505090506000836001600160a01b0316630dfe16816040518163ffffffff1660e01b815260040160206040518083038186803b15801561068b57600080fd5b505afa15801561069f573d6000803e3d6000fd5b505050506040513d601f19601f820116820180604052508101906106c39190612bb8565b90506000846001600160a01b031663d21220a76040518163ffffffff1660e01b815260040160206040518083038186803b15801561070057600080fd5b505afa158015610714573d6000803e3d6000fd5b505050506040513d601f19601f820116820180604052508101906107389190612bb8565b90506000826001600160a01b031663313ce5676040518163ffffffff1660e01b815260040160206040518083038186803b15801561077557600080fd5b505afa158015610789573d6000803e3d6000fd5b505050506040513d601f19601f820116820180604052508101906107ad9190613071565b60ff1690506000826001600160a01b031663313ce5676040518163ffffffff1660e01b815260040160206040518083038186803b1580156107ed57600080fd5b505afa158015610801573d6000803e3d6000fd5b505050506040513d601f19601f820116820180604052508101906108259190613071565b60ff1690506000610837838388610904565b9050600061084684600a6134c0565b61085390620f4240613568565b9050600061086284600a6134c0565b61086f90620f4240613568565b9050670de0b6b3a76400006108848285613568565b61088e9190613469565b9050600061089d866012613587565b6108a890600a6134c0565b6108b29084613568565b905060006108c1866012613587565b6108cc90600a6134c0565b6108d69084613568565b6040805160808101825295865260208601949094529284019190915250606082015298975050505050505050565b6000806109128386866117e2565b9050600061092a8283680100000000000000006118e3565b905060126109478261093d83600a6134c0565b600160801b6118e3565b93505050505b9392505050565b600061095f82610ce8565b61010081015161012082015191925090818110156109c45760405162461bcd60e51b815260206004820152601d60248201527f557364634f75742073686f756c64206265206d6f72652055736463496e00000060448201526064015b60405180910390fd5b60608401516040516370a0823160e01b81523060048201526000916001600160a01b0316906370a082319060240160206040518083038186803b158015610a0a57600080fd5b505afa158015610a1e573d6000803e3d6000fd5b505050506040513d601f19601f82011682018060405250810190610a42919061302a565b9050610a7860405180604001604052806012815260200171030b6b7bab73a2ab9b231a132b337b9329d160751b81525082611a5f565b6000848233604051602001610a8f93929190613331565b60408051601f19818403018152600180845283830190925292506000919060208083019080368337019050509050856080015181600081518110610ad557610ad56135fb565b6001600160a01b03929092166020928302919091019091015260408051600180825281830190925260009181602001602082028036833701905050905086610100015181600081518110610b2b57610b2b6135fb565b6020908102919091010152604051632e1c224f60e11b815273ba12222222228d8ba445958a75a0704d566bf2c890635c38449e90610b739030908690869089906004016131cf565b600060405180830381600087803b158015610b8d57600080fd5b505af1158015610ba1573d6000803e3d6000fd5b5050505060608801516040516370a0823160e01b81523060048201526000916001600160a01b0316906370a082319060240160206040518083038186803b158015610beb57600080fd5b505afa158015610bff573d6000803e3d6000fd5b505050506040513d601f19601f82011682018060405250810190610c23919061302a565b9050610c5860405180604001604052806011815260200170030b6b7bab73a2ab9b231a0b33a32b91d1607d1b81525082611a5f565b88606001516001600160a01b031663a9059cbb33836040518363ffffffff1660e01b8152600401610c8a9291906131b6565b602060405180830381600087803b158015610ca457600080fd5b505af1158015610cb8573d6000803e3d6000fd5b505050506040513d601f19601f82011682018060405250810190610cdc9190612d7f565b50505050505050505050565b610cf06128db565b6000610cff8360000151610189565b90506000610d1084602001516105aa565b9050610d38604051806060016040528060248152602001613693602491398260400151611a5f565b610d5e60405180606001604052806024815260200161366f602491398260600151611a5f565b610d846040518060600160405280602481526020016136b7602491398360400151611a5f565b610daa60405180606001604052806024815260200161364b602491398360600151611a5f565b6040810151670de0b6b3a764000090610dc39082613568565b9050816060015181610dd59190613469565b9050826060015181610de79190613568565b9050826040015181610df99190613469565b9050610e2a6040518060400160405280600d81526020016c031b430b733b2a83934b1b29d1609d1b81525082611a5f565b808560c00151108015610e4057508460e0015181105b15610ed6575050604080516101408101825260018152600060208083018290528351606080820186528382528183018490528186018490528486019190915284516080808201875284825292810184905294850183905284810183905283019390935291810182905260a0810182905260c0810182905260e0810182905261010081018290526101208101919091529392505050565b610f196040518060400160405280601a81526020017f62616c616e6365735461726765742e72657365727665303a20200000000000008152508360000151611a5f565b610f5c6040518060400160405280601a81526020017f62616c616e6365735461726765742e72657365727665313a20200000000000008152508360200151611a5f565b610f9f6040518060400160405280601a81526020017f62616c616e63657343757272656e742e72657365727665303a200000000000008152508460000151611a5f565b610fe26040518060400160405280601a81526020017f62616c616e63657343757272656e742e72657365727665313a200000000000008152508460200151611a5f565b8251602080850151845191850151909190610ffb6128db565b8960400151156111ed57670de0b6b3a76400008610156111015760405180610140016040528060001515815260200160011515815260200160405180606001604052808d606001516001600160a01b031681526020018d608001516001600160a01b031681526020018d60a001516001600160a01b0316815250815260200160405180608001604052808781526020018881526020018581526020018681525081526020018b606001516001600160a01b031681526020018b60a001516001600160a01b031681526020018b61010001516001600160a01b031681526020018b61012001516001600160a01b0316815260200160008152602001600081525090506113d1565b60405180610140016040528060001515815260200160001515815260200160405180606001604052808d60a001516001600160a01b031681526020018d608001516001600160a01b031681526020018d606001516001600160a01b0316815250815260200160405180608001604052808881526020018781526020018681526020018581525081526020018b606001516001600160a01b031681526020018b60a001516001600160a01b031681526020018b61010001516001600160a01b031681526020018b61012001516001600160a01b0316815260200160008152602001600081525090506113d1565b670de0b6b3a76400008610156112e95760405180610140016040528060001515815260200160001515815260200160405180606001604052808d60a001516001600160a01b031681526020018d608001516001600160a01b031681526020018d606001516001600160a01b0316815250815260200160405180608001604052808781526020018881526020018581526020018681525081526020018b606001516001600160a01b031681526020018b60a001516001600160a01b031681526020018b61010001516001600160a01b031681526020018b61012001516001600160a01b0316815260200160008152602001600081525090506113d1565b60405180610140016040528060001515815260200160011515815260200160405180606001604052808d606001516001600160a01b031681526020018d608001516001600160a01b031681526020018d60a001516001600160a01b0316815250815260200160405180608001604052808881526020018781526020018681526020018581525081526020018b606001516001600160a01b031681526020018b60a001516001600160a01b031681526020018b61010001516001600160a01b031681526020018b61012001516001600160a01b0316815260200160008152602001600081525090505b806020015115611420576040808201518051602080830151928401516060808701518051938101519681015191015161140f96889694929091611aa8565b610120830152610100820152611461565b6040808201518051602080830151928401516060808701518051938101519681015191015161145496889694929091611b37565b6101208301526101008201525b9998505050505050505050565b83516001146114c95760405162461bcd60e51b815260206004820152602160248201527f4f6e6c79206f6e6520746f6b656e2073686f756c6420626520696e20666c61736044820152600d60fb1b60648201526084016109bb565b6000806000838060200190518101906114e29190612d9c565b92509250925082608001516001600160a01b031687600081518110611509576115096135fb565b60200260200101516001600160a01b0316146115725760405162461bcd60e51b815260206004820152602260248201527f4f6e6c79205553444320746f6b656e2073686f756c6420626520696e20666c616044820152610e6d60f31b60648201526084016109bb565b84600081518110611585576115856135fb565b60200260200101516000146115dc5760405162461bcd60e51b815260206004820152601860248201527f4f6e6c79207a65726f206665652061636365707461626c65000000000000000060448201526064016109bb565b60808301516040516370a0823160e01b81523060048201526000916001600160a01b0316906370a082319060240160206040518083038186803b15801561162257600080fd5b505afa158015611636573d6000803e3d6000fd5b505050506040513d601f19601f8201168201806040525081019061165a919061302a565b90508284610100015161166d9190613451565b8110156116bc5760405162461bcd60e51b815260206004820152601d60248201527f4e6f7420656e6f75676820757364632073656e6420746f20666c61736800000060448201526064016109bb565b6116c58461176d565b83608001516001600160a01b031663a9059cbb73ba12222222228d8ba445958a75a0704d566bf2c88661010001516040518363ffffffff1660e01b81526004016117109291906131b6565b602060405180830381600087803b15801561172a57600080fd5b505af115801561173e573d6000803e3d6000fd5b505050506040513d601f19601f820116820180604052508101906117629190612d7f565b505050505050505050565b8060200151156117ae57604080820151805160208083015192840151606080870151805193810151968101519101516117ab96889694929091611baf565b50565b604080820151805160208083015192840151606080870151805193810151968101519101516117ab96889694929091611c8f565b60008183146118d457818311156118685760006117ff8484611d69565b905061182a61180f826002611dce565b61181a90600a6134c0565b6001600160a01b03871690611e29565b915061183760028261359e565b600114156118625761185f827003298b075b4b6a5240945790619b37fd4a600160801b6118e3565b91505b5061094d565b60006118748385611d69565b905061189f611884826002611dce565b61188f90600a6134c0565b6001600160a01b03871690611dce565b91506118ac60028261359e565b600114156118625761185f82600160801b7003298b075b4b6a5240945790619b37fd4a6118e3565b5050506001600160a01b031690565b60008080600019858709858702925082811083820303915050806000141561191d576000841161191257600080fd5b50829004905061094d565b80841161192957600080fd5b60008486880980840393811190920391905084600081611948816135b2565b16968790049694859004949050600081900381900460010161196a8186613568565b90951794600061197b896003613568565b600218905061198a818a613568565b611995906002613587565b61199f9082613568565b90506119ab818a613568565b6119b6906002613587565b6119c09082613568565b90506119cc818a613568565b6119d7906002613587565b6119e19082613568565b90506119ed818a613568565b6119f8906002613587565b611a029082613568565b9050611a0e818a613568565b611a19906002613587565b611a239082613568565b9050611a2f818a613568565b611a3a906002613587565b611a449082613568565b9050611a508188613568565b9b9a5050505050505050505050565b611aa48282604051602401611a7592919061326b565b60408051601f198184030181529190526020810180516001600160e01b03166309710a9d60e41b179052611ea8565b5050565b6000806000611ab987878787611ec9565b9050611ae260405180604001604052806005815260200164030a4b71d160dd1b81525082611a5f565b6000611af886611af28488611e29565b90611dce565b9050611b0a6064611af2836065611e29565b9050806000611b22611b1d858c8c611f83565b611fd2565b919e919d50909b505050505050505050505050565b6000806000611b4887878787611ec9565b9050611b7160405180604001604052806005815260200164030a4b71d160dd1b81525082611a5f565b6000611b7c82611fd2565b90506000611b8b828a8a611f83565b9050611b9b86611af2838a611e29565b919d919c50909a5050505050505050505050565b6000611bbd85858585611ec9565b9050611be660405180604001604052806005815260200164030a4b71d160dd1b81525082611a5f565b6000611bf684611af28486611e29565b9050611c086064611af2836065611e29565b9050806000611c1b611b1d858a8a611f83565b905066038d7ea4c68000808511611c705760405162461bcd60e51b815260206004820152601960248201527861496e20746f6f206c6f772c20736b697020616374696f6e7360381b60448201526064016109bb565b84611c7f8e8e8e8e8986611fe6565b5050505050505050505050505050565b6000611c9d85858585611ec9565b9050611cc660405180604001604052806005815260200164030a4b71d160dd1b81525082611a5f565b6000611cd182611fd2565b90506000611ce0828888611f83565b9050611cf084611af28388611e29565b90506103e8808411611d405760405162461bcd60e51b815260206004820152601960248201527861496e20746f6f206c6f772c20736b697020616374696f6e7360381b60448201526064016109bb565b6000611d4b85611fd2565b9050611d5a8d8d8d8d85612013565b50505050505050505050505050565b600082821115611dbb5760405162461bcd60e51b815260206004820152601e60248201527f536166654d6174683a207375627472616374696f6e206f766572666c6f77000060448201526064016109bb565b611dc58284613587565b90505b92915050565b6000808211611e1f5760405162461bcd60e51b815260206004820152601a60248201527f536166654d6174683a206469766973696f6e206279207a65726f00000000000060448201526064016109bb565b611dc58284613469565b600082611e3857506000611dc8565b6000611e448385613568565b905082611e518583613469565b14611dc55760405162461bcd60e51b815260206004820152602160248201527f536166654d6174683a206d756c7469706c69636174696f6e206f766572666c6f6044820152607760f81b60648201526084016109bb565b80516a636f6e736f6c652e6c6f67602083016000808483855afa5050505050565b600080611ee983611af286611ee389818c623cda20611e29565b90611e29565b90506000611efc87611ee3816009611e29565b90506000611f0c8861175e611e29565b90506000611f3182611f2b620f2ad9611f25888861203f565b9061203f565b90611d69565b90506000611f3e8261209e565b90506000611f4e8b6107cd611e29565b90506000611f6282611f2b6103e58661203f565b90506000611f72826107ca611dce565b9d9c50505050505050505050505050565b60006103e56103e882611f968784611e29565b90506000611fa48287611e29565b90506000611fb683611f258a87611e29565b90506000611fc48383611dce565b9a9950505050505050505050565b6000611dc861270c611af284612710611e29565b6000611ff587878785876120f7565b90506000612005888787866122c9565b90506000610cdc8983612486565b600061201f8683612617565b9050600061202f878787856122c9565b905060006117628887878561274d565b60008061204c8385613451565b905083811015611dc55760405162461bcd60e51b815260206004820152601b60248201527f536166654d6174683a206164646974696f6e206f766572666c6f77000000000060448201526064016109bb565b60008060026120ae846001613451565b6120b89190613469565b90508291505b818110156120f1579050806002816120d68186613469565b6120e09190613451565b6120ea9190613469565b90506120be565b50919050565b60e085015160405163095ea7b360e01b81526000916001600160a01b0387169163095ea7b39161212b9186906004016131b6565b602060405180830381600087803b15801561214557600080fd5b505af1158015612159573d6000803e3d6000fd5b505050506040513d601f19601f8201168201806040525081019061217d9190612d7f565b506121bd6040518060400160405280601b81526020017f7377617055334f757420616d6f756e74496e4d6178696d756d3a20000000000081525083611a5f565b6121f460405180604001604052806015815260200174039bbb0b82a99a7baba1030b6b7bab73a27baba1d1605d1b81525084611a5f565b60408051610100810182526001600160a01b03808816825286811660208301526101f482840152306060830152600019608083015260a0820186905260c08201859052600060e08084018290528a01519351631b67c43360e31b81529293909291169063db3e21989061226b9085906004016132b8565b602060405180830381600087803b15801561228557600080fd5b505af1158015612299573d6000803e3d6000fd5b505050506040513d601f19601f820116820180604052508101906122bd919061302a565b98975050505050505050565b60c084015160405163095ea7b360e01b81526000916001600160a01b0386169163095ea7b3916122fd9186906004016131b6565b602060405180830381600087803b15801561231757600080fd5b505af115801561232b573d6000803e3d6000fd5b505050506040513d601f19601f8201168201806040525081019061234f9190612d7f565b506040805160028082526060820183526000926020830190803683370190505090508481600081518110612385576123856135fb565b60200260200101906001600160a01b031690816001600160a01b03168152505083816001815181106123b9576123b96135fb565b6001600160a01b03928316602091820292909201015260c08701516040516338ed173960e01b815260009291909116906338ed17399061240790879085908790309060001990600401613361565b600060405180830381600087803b15801561242157600080fd5b505af1158015612435573d6000803e3d6000fd5b505050506040513d6000823e601f3d908101601f1916820160405261245d9190810190612ce7565b905080600181518110612472576124726135fb565b602002602001015192505050949350505050565b6000808360a001516001600160a01b031663d2f7265a6040518163ffffffff1660e01b8152600401602060405180830381600087803b1580156124c857600080fd5b505af11580156124dc573d6000803e3d6000fd5b505050506040513d601f19601f820116820180604052508101906125009190612bb8565b60a085015160405163095ea7b360e01b81529192506001600160a01b03169063095ea7b39061253590849087906004016131b6565b602060405180830381600087803b15801561254f57600080fd5b505af1158015612563573d6000803e3d6000fd5b505050506040513d601f19601f820116820180604052508101906125879190612d7f565b5060808401516040516301e9a69560e41b81526000916001600160a01b03841691631e9a6950916125bc9188906004016131b6565b602060405180830381600087803b1580156125d657600080fd5b505af11580156125ea573d6000803e3d6000fd5b505050506040513d601f19601f8201168201806040525081019061260e919061302a565b95945050505050565b6000808360a001516001600160a01b031663d2f7265a6040518163ffffffff1660e01b8152600401602060405180830381600087803b15801561265957600080fd5b505af115801561266d573d6000803e3d6000fd5b505050506040513d601f19601f820116820180604052508101906126919190612bb8565b608085015160405163095ea7b360e01b81529192506001600160a01b03169063095ea7b3906126c690849087906004016131b6565b602060405180830381600087803b1580156126e057600080fd5b505af11580156126f4573d6000803e3d6000fd5b505050506040513d601f19601f820116820180604052508101906127189190612d7f565b50608084015160405163cce7ec1360e01b81526000916001600160a01b0384169163cce7ec13916125bc9188906004016131b6565b60e084015160405163095ea7b360e01b81526000916001600160a01b0386169163095ea7b3916127819186906004016131b6565b602060405180830381600087803b15801561279b57600080fd5b505af11580156127af573d6000803e3d6000fd5b505050506040513d601f19601f820116820180604052508101906127d39190612d7f565b5061280760405180604001604052806011815260200170039bbb0b82a999030b6b7bab73a24b71d1607d1b81525083611a5f565b60408051610100810182526001600160a01b03808716825285811660208301526101f482840152306060830152600019608083015260a08201859052600060c0830181905260e0808401829052890151935163414bf38960e01b81529293909291169063414bf3899061287e9085906004016132b8565b602060405180830381600087803b15801561289857600080fd5b505af11580156128ac573d6000803e3d6000fd5b505050506040513d601f19601f820116820180604052508101906128d0919061302a565b979650505050505050565b604080516101408101825260008082526020808301829052835160608101855282815290810182905280840191909152909182019081526020016129406040518060800160405280600081526020016000815260200160008152602001600081525090565b815260006020820181905260408201819052606082018190526080820181905260a0820181905260c09091015290565b803561297b81613627565b919050565b805161297b81613627565b600082601f83011261299c57600080fd5b813560206129b16129ac8361342d565b6133fc565b80838252828201915082860187848660051b89010111156129d157600080fd5b60005b858110156129f0578135845292840192908401906001016129d4565b5090979650505050505050565b803561297b8161363c565b805161297b8161363c565b600082601f830112612a2457600080fd5b813567ffffffffffffffff811115612a3e57612a3e613611565b612a51601f8201601f19166020016133fc565b818152846020838601011115612a6657600080fd5b816020850160208301376000918101602001919091529392505050565b600060808284031215612a9557600080fd5b6040516080810181811067ffffffffffffffff82111715612ab857612ab8613611565b8060405250809150825181526020830151602082015260408301516040820152606083015160608201525092915050565b600060608284031215612afb57600080fd5b6040516060810181811067ffffffffffffffff82111715612b1e57612b1e613611565b80604052508091508251612b3181613627565b81526020830151612b4181613627565b60208201526040830151612b5481613627565b6040919091015292915050565b80516001600160701b038116811461297b57600080fd5b805161ffff8116811461297b57600080fd5b805160ff8116811461297b57600080fd5b600060208284031215612bad57600080fd5b8135611dc581613627565b600060208284031215612bca57600080fd5b8151611dc581613627565b60008060008060808587031215612beb57600080fd5b843567ffffffffffffffff80821115612c0357600080fd5b818701915087601f830112612c1757600080fd5b81356020612c276129ac8361342d565b8083825282820191508286018c848660051b8901011115612c4757600080fd5b600096505b84871015612c73578035612c5f81613627565b835260019690960195918301918301612c4c565b5098505088013592505080821115612c8a57600080fd5b612c968883890161298b565b94506040870135915080821115612cac57600080fd5b612cb88883890161298b565b93506060870135915080821115612cce57600080fd5b50612cdb87828801612a13565b91505092959194509250565b60006020808385031215612cfa57600080fd5b825167ffffffffffffffff811115612d1157600080fd5b8301601f81018513612d2257600080fd5b8051612d306129ac8261342d565b80828252848201915084840188868560051b8701011115612d5057600080fd5b600094505b83851015612d73578051835260019490940193918501918501612d55565b50979650505050505050565b600060208284031215612d9157600080fd5b8151611dc58161363c565b6000806000838503610220811215612db357600080fd5b6101e080821215612dc357600080fd5b612dcb6133d2565b9150612dd686612a08565b8252612de460208701612a08565b6020830152612df68760408801612ae9565b6040830152612e088760a08801612a83565b6060830152610120612e1b818801612980565b6080840152612e2d6101408801612980565b60a0840152612e3f6101608801612980565b60c0840152612e516101808801612980565b60e08401526101a08701516101008401526101c0870151908301528501519093509150612e816102008501612980565b90509250925092565b60006101408284031215612e9d57600080fd5b612ea56133d2565b612eae83612970565b8152612ebc60208401612970565b6020820152612ecd604084016129fd565b6040820152612ede60608401612970565b6060820152612eef60808401612970565b6080820152612f0060a08401612970565b60a082015260c083013560c082015260e083013560e0820152610100612f27818501612970565b90820152610120612f39848201612970565b908201529392505050565b600080600060608486031215612f5957600080fd5b612f6284612b61565b9250612f7060208501612b61565b9150604084015163ffffffff81168114612f8957600080fd5b809150509250925092565b600080600080600080600060e0888a031215612faf57600080fd5b8751612fba81613627565b8097505060208801518060020b8114612fd257600080fd5b9550612fe060408901612b78565b9450612fee60608901612b78565b9350612ffc60808901612b78565b925061300a60a08901612b8a565b915060c088015161301a8161363c565b8091505092959891949750929550565b60006020828403121561303c57600080fd5b5051919050565b60008060006060848603121561305857600080fd5b83359250602084013591506040840135612f8981613627565b60006020828403121561308357600080fd5b611dc582612b8a565b6000815180845260005b818110156130b257602081850181015186830182015201613096565b818111156130c4576000602083870101525b50601f01601f19169290920160200192915050565b80511515825260208101516130f2602084018215159052565b506040810151613127604084018280516001600160a01b03908116835260208083015182169084015260409182015116910152565b50606081810151805160a0850152602081015160c0850152604081015160e0850152015161010083015260808101516001600160a01b0381166101208085019190915260a08301516001600160a01b0390811661014086015260c0840151811661016086015260e0840151166101808501526101008301516101a0850152909101516101c09092019190915250565b6001600160a01b03929092168252602082015260400190565b6001600160a01b0385811682526080602080840182905286519184018290526000928782019290919060a0860190855b8181101561321d5785518516835294830194918301916001016131ff565b5050858103604087015287518082529082019350915080870160005b8381101561325557815185529382019390820190600101613239565b5050505082810360608401526128d0818561308c565b60408152600061327e604083018561308c565b90508260208301529392505050565b8151815260208083015190820152604080830151908201526060808301519082015260808101611dc8565b6101008101611dc8828480516001600160a01b03908116835260208083015182169084015260408083015162ffffff16908401526060808301518216908401526080808301519084015260a0828101519084015260c0808301519084015260e09182015116910152565b6101e08101611dc882846130d9565b610220810161334082866130d9565b6101e08201939093526001600160a01b039190911661020090910152919050565b600060a082018783526020878185015260a0604085015281875180845260c086019150828901935060005b818110156133b15784516001600160a01b03168352938301939183019160010161338c565b50506001600160a01b03969096166060850152505050608001529392505050565b604051610140810167ffffffffffffffff811182821017156133f6576133f6613611565b60405290565b604051601f8201601f1916810167ffffffffffffffff8111828210171561342557613425613611565b604052919050565b600067ffffffffffffffff82111561344757613447613611565b5060051b60200190565b60008219821115613464576134646135cf565b500190565b600082613478576134786135e5565b500490565b600181815b808511156134b857816000190482111561349e5761349e6135cf565b808516156134ab57918102915b93841c9390800290613482565b509250929050565b6000611dc583836000826134d657506001611dc8565b816134e357506000611dc8565b81600181146134f957600281146135035761351f565b6001915050611dc8565b60ff841115613514576135146135cf565b50506001821b611dc8565b5060208310610133831016604e8410600b8410161715613542575081810a611dc8565b61354c838361347d565b8060001904821115613560576135606135cf565b029392505050565b6000816000190483118215151615613582576135826135cf565b500290565b600082821015613599576135996135cf565b500390565b6000826135ad576135ad6135e5565b500690565b6000600160ff1b8214156135c8576135c86135cf565b5060000390565b634e487b7160e01b600052601160045260246000fd5b634e487b7160e01b600052601260045260246000fd5b634e487b7160e01b600052603260045260246000fd5b634e487b7160e01b600052604160045260246000fd5b6001600160a01b03811681146117ab57600080fd5b80151581146117ab57600080fdfe62616c616e63657343757272656e742e72657365727665314e6f726d616c697a65643a2062616c616e6365735461726765742e72657365727665314e6f726d616c697a65643a202062616c616e6365735461726765742e72657365727665304e6f726d616c697a65643a202062616c616e63657343757272656e742e72657365727665304e6f726d616c697a65643a20a2646970667358221220a1bf85423dfaf384d2c21629ea350669237fa67094154a7cbb6e9aed4f54faa064736f6c63430008070033",
  "linkReferences": {},
  "deployedLinkReferences": {}
}