{
  "address": "0x99A8cCf9F1dd4920A34cfb6E6AD33d10d3d7483b",
  "abi": [
    {
      "inputs": [],
      "name": "balancerVault",
      "outputs": [
        {
          "internalType": "address",
          "name": "",
          "type": "address"
        }
      ],
      "stateMutability": "view",
      "type": "function"
    },
    {
      "inputs": [
        {
          "internalType": "address",
          "name": "pool",
          "type": "address"
        }
      ],
      "name": "balancesQsPool",
      "outputs": [
        {
          "components": [
            {
              "internalType": "uint256",
              "name": "reserve0",
              "type": "uint256"
            },
            {
              "internalType": "uint256",
              "name": "reserve1",
              "type": "uint256"
            },
            {
              "internalType": "uint256",
              "name": "reserve0Normalized",
              "type": "uint256"
            },
            {
              "internalType": "uint256",
              "name": "reserve1Normalized",
              "type": "uint256"
            }
          ],
          "internalType": "struct IArbitrageQSUsdc.Balances",
          "name": "",
          "type": "tuple"
        }
      ],
      "stateMutability": "view",
      "type": "function"
    },
    {
      "inputs": [],
      "name": "changePriceBoundDenominator",
      "outputs": [
        {
          "internalType": "uint256",
          "name": "",
          "type": "uint256"
        }
      ],
      "stateMutability": "view",
      "type": "function"
    },
    {
      "inputs": [
        {
          "components": [
            {
              "internalType": "address",
              "name": "qsPool",
              "type": "address"
            },
            {
              "internalType": "address",
              "name": "usdc",
              "type": "address"
            },
            {
              "internalType": "address",
              "name": "usdPlus",
              "type": "address"
            },
            {
              "internalType": "uint256",
              "name": "lowerChangePriceBound",
              "type": "uint256"
            },
            {
              "internalType": "uint256",
              "name": "upperChangePriceBound",
              "type": "uint256"
            },
            {
              "internalType": "address",
              "name": "qsRouter",
              "type": "address"
            }
          ],
          "internalType": "struct IArbitrageQSUsdc.Params",
          "name": "params",
          "type": "tuple"
        }
      ],
      "name": "fix",
      "outputs": [],
      "stateMutability": "nonpayable",
      "type": "function"
    },
    {
      "inputs": [
        {
          "components": [
            {
              "internalType": "address",
              "name": "qsPool",
              "type": "address"
            },
            {
              "internalType": "address",
              "name": "usdc",
              "type": "address"
            },
            {
              "internalType": "address",
              "name": "usdPlus",
              "type": "address"
            },
            {
              "internalType": "uint256",
              "name": "lowerChangePriceBound",
              "type": "uint256"
            },
            {
              "internalType": "uint256",
              "name": "upperChangePriceBound",
              "type": "uint256"
            },
            {
              "internalType": "address",
              "name": "qsRouter",
              "type": "address"
            }
          ],
          "internalType": "struct IArbitrageQSUsdc.Params",
          "name": "params",
          "type": "tuple"
        }
      ],
      "name": "fixByFlash",
      "outputs": [],
      "stateMutability": "nonpayable",
      "type": "function"
    },
    {
      "inputs": [
        {
          "components": [
            {
              "internalType": "address",
              "name": "qsPool",
              "type": "address"
            },
            {
              "internalType": "address",
              "name": "usdc",
              "type": "address"
            },
            {
              "internalType": "address",
              "name": "usdPlus",
              "type": "address"
            },
            {
              "internalType": "uint256",
              "name": "lowerChangePriceBound",
              "type": "uint256"
            },
            {
              "internalType": "uint256",
              "name": "upperChangePriceBound",
              "type": "uint256"
            },
            {
              "internalType": "address",
              "name": "qsRouter",
              "type": "address"
            }
          ],
          "internalType": "struct IArbitrageQSUsdc.Params",
          "name": "params",
          "type": "tuple"
        }
      ],
      "name": "getFixParams",
      "outputs": [
        {
          "components": [
            {
              "internalType": "bool",
              "name": "skip",
              "type": "bool"
            },
            {
              "internalType": "bool",
              "name": "putUsdPlusToPool",
              "type": "bool"
            },
            {
              "components": [
                {
                  "internalType": "address",
                  "name": "token0",
                  "type": "address"
                },
                {
                  "internalType": "address",
                  "name": "token1",
                  "type": "address"
                }
              ],
              "internalType": "struct IArbitrageQSUsdc.Tokens",
              "name": "tokens",
              "type": "tuple"
            },
            {
              "components": [
                {
                  "internalType": "uint256",
                  "name": "reserve0",
                  "type": "uint256"
                },
                {
                  "internalType": "uint256",
                  "name": "reserve1",
                  "type": "uint256"
                },
                {
                  "internalType": "uint256",
                  "name": "reserve2",
                  "type": "uint256"
                },
                {
                  "internalType": "uint256",
                  "name": "reserve3",
                  "type": "uint256"
                }
              ],
              "internalType": "struct IArbitrageQSUsdc.Reserves",
              "name": "reserves",
              "type": "tuple"
            },
            {
              "internalType": "address",
              "name": "usdc",
              "type": "address"
            },
            {
              "internalType": "address",
              "name": "usdPlus",
              "type": "address"
            },
            {
              "internalType": "address",
              "name": "qsRouter",
              "type": "address"
            },
            {
              "internalType": "uint256",
              "name": "usdcIn",
              "type": "uint256"
            },
            {
              "internalType": "uint256",
              "name": "usdcOut",
              "type": "uint256"
            }
          ],
          "internalType": "struct IArbitrageQSUsdc.FixParams",
          "name": "",
          "type": "tuple"
        }
      ],
      "stateMutability": "view",
      "type": "function"
    },
    {
      "inputs": [
        {
          "internalType": "address",
          "name": "pool",
          "type": "address"
        }
      ],
      "name": "getSampleTargets",
      "outputs": [
        {
          "components": [
            {
              "internalType": "uint256",
              "name": "reserve0",
              "type": "uint256"
            },
            {
              "internalType": "uint256",
              "name": "reserve1",
              "type": "uint256"
            },
            {
              "internalType": "uint256",
              "name": "reserve0Normalized",
              "type": "uint256"
            },
            {
              "internalType": "uint256",
              "name": "reserve1Normalized",
              "type": "uint256"
            }
          ],
          "internalType": "struct IArbitrageQSUsdc.Balances",
          "name": "",
          "type": "tuple"
        }
      ],
      "stateMutability": "view",
      "type": "function"
    },
    {
      "inputs": [
        {
          "internalType": "contract IERC20[]",
          "name": "tokens",
          "type": "address[]"
        },
        {
          "internalType": "uint256[]",
          "name": "amounts",
          "type": "uint256[]"
        },
        {
          "internalType": "uint256[]",
          "name": "feeAmounts",
          "type": "uint256[]"
        },
        {
          "internalType": "bytes",
          "name": "userData",
          "type": "bytes"
        }
      ],
      "name": "receiveFlashLoan",
      "outputs": [],
      "stateMutability": "nonpayable",
      "type": "function"
    }
  ],
  "transactionHash": "0x1f49eb7fddf95c0abc2a1dfa68339023195ea5ac5fff94771b26808400a6810f",
  "args": [],
  "numDeployments": 1,
  "solcInputHash": "038281e5f034b96c056fc9b60920101b",
  "bytecode": "0x608060405234801561001057600080fd5b50612cd0806100206000396000f3fe608060405234801561001057600080fd5b50600436106100885760003560e01c80639a570a261161005b5780639a570a26146101125780639ddc352e14610125578063c432eb9814610145578063f04f27071461015857600080fd5b8063158274a51461008d5780632edde981146100c55780636ac56956146100e557806394a2443e146100fa575b600080fd5b6100a873ba12222222228d8ba445958a75a0704d566bf2c881565b6040516001600160a01b0390911681526020015b60405180910390f35b6100d86100d336600461231f565b61016b565b6040516100bc91906128fe565b6100f86100f33660046125f9565b61047b565b005b610104620f424081565b6040519081526020016100bc565b6100f86101203660046125f9565b61059b565b6101386101333660046125f9565b61092f565b6040516100bc9190612929565b6100d861015336600461231f565b611087565b6100f8610166366004612359565b6112dc565b6101966040518060800160405280600081526020016000815260200160008152602001600081525090565b600080836001600160a01b0316630902f1ac6040518163ffffffff1660e01b815260040160606040518083038186803b1580156101d257600080fd5b505afa1580156101e6573d6000803e3d6000fd5b505050506040513d601f19601f8201168201806040525081019061020a9190612694565b50915091506000846001600160a01b0316630dfe16816040518163ffffffff1660e01b815260040160206040518083038186803b15801561024a57600080fd5b505afa15801561025e573d6000803e3d6000fd5b505050506040513d601f19601f82011682018060405250810190610282919061233c565b90506000856001600160a01b031663d21220a76040518163ffffffff1660e01b815260040160206040518083038186803b1580156102bf57600080fd5b505afa1580156102d3573d6000803e3d6000fd5b505050506040513d601f19601f820116820180604052508101906102f7919061233c565b90506000826001600160a01b031663313ce5676040518163ffffffff1660e01b815260040160206040518083038186803b15801561033457600080fd5b505afa158015610348573d6000803e3d6000fd5b505050506040513d601f19601f8201168201806040525081019061036c91906126fd565b60ff1690506000826001600160a01b031663313ce5676040518163ffffffff1660e01b815260040160206040518083038186803b1580156103ac57600080fd5b505afa1580156103c0573d6000803e3d6000fd5b505050506040513d601f19601f820116820180604052508101906103e491906126fd565b60ff16905060006103f6836012612b9c565b61040190600a612ad5565b610414906001600160701b038916612b7d565b90506000610423836012612b9c565b61042e90600a612ad5565b610441906001600160701b038916612b7d565b604080516080810182526001600160701b039a8b168152989099166020890152978701919091525050505060608201929092529392505050565b60006104868261092f565b9050610491816115dd565b60208201516040516370a0823160e01b81523060048201526001600160a01b039091169063a9059cbb90339083906370a082319060240160206040518083038186803b1580156104e057600080fd5b505afa1580156104f4573d6000803e3d6000fd5b505050506040513d601f19601f8201168201806040525081019061051891906126e4565b6040516001600160e01b031960e085901b1681526001600160a01b0390921660048301526024820152604401602060405180830381600087803b15801561055e57600080fd5b505af1158015610572573d6000803e3d6000fd5b505050506040513d601f19601f820116820180604052508101906105969190612503565b505050565b60006105a68261092f565b60e0810151610100820151919250908181101561060a5760405162461bcd60e51b815260206004820152601d60248201527f557364634f75742073686f756c64206265206d6f72652055736463496e00000060448201526064015b60405180910390fd5b60208401516040516370a0823160e01b81523060048201526000916001600160a01b0316906370a082319060240160206040518083038186803b15801561065057600080fd5b505afa158015610664573d6000803e3d6000fd5b505050506040513d601f19601f8201168201806040525081019061068891906126e4565b90506106be60405180604001604052806012815260200171030b6b7bab73a2ab9b231a132b337b9329d160751b81525082611648565b60008482336040516020016106d593929190612938565b60408051601f1981840301815260018084528383019092529250600091906020808301908036833701905050905085608001518160008151811061071b5761071b612bc9565b6001600160a01b0392909216602092830291909101909101526040805160018082528183019092526000918160200160208202803683370190505090508660e001518160008151811061077057610770612bc9565b6020908102919091010152604051632e1c224f60e11b815273ba12222222228d8ba445958a75a0704d566bf2c890635c38449e906107b8903090869086908990600401612835565b600060405180830381600087803b1580156107d257600080fd5b505af11580156107e6573d6000803e3d6000fd5b5050505060208801516040516370a0823160e01b81523060048201526000916001600160a01b0316906370a082319060240160206040518083038186803b15801561083057600080fd5b505afa158015610844573d6000803e3d6000fd5b505050506040513d601f19601f8201168201806040525081019061086891906126e4565b905061089d60405180604001604052806011815260200170030b6b7bab73a2ab9b231a0b33a32b91d1607d1b81525082611648565b602089015160405163a9059cbb60e01b8152336004820152602481018390526001600160a01b039091169063a9059cbb90604401602060405180830381600087803b1580156108eb57600080fd5b505af11580156108ff573d6000803e3d6000fd5b505050506040513d601f19601f820116820180604052508101906109239190612503565b50505050505050505050565b6109376120b4565b600082604001516001600160a01b031683600001516001600160a01b0316630dfe16816040518163ffffffff1660e01b815260040160206040518083038186803b15801561098457600080fd5b505afa158015610998573d6000803e3d6000fd5b505050506040513d601f19601f820116820180604052508101906109bc919061233c565b6001600160a01b031614905060006109d7846000015161016b565b905060006109e88560000151611087565b9050610a10604051806060016040528060248152602001612c53602491398260400151611648565b610a36604051806060016040528060248152602001612c2f602491398260600151611648565b610a5c604051806060016040528060248152602001612c77602491398360400151611648565b610a82604051806060016040528060248152602001612c0b602491398360600151611648565b6040810151670de0b6b3a764000090610a9b9082612b7d565b9050816060015181610aad9190612a70565b9050826060015181610abf9190612b7d565b9050826040015181610ad19190612a70565b9050610b026040518060400160405280600d81526020016c031b430b733b2a83934b1b29d1609d1b81525082611648565b808660600151108015610b185750856080015181105b15610b9e575050604080516101208101825260018152600060208083018290528351808501855282815280820183905283850152835160808082018652838252918101839052938401829052606084810183905283019390935291810182905260a0810182905260c0810182905260e08101829052610100810191909152949350505050565b610be16040518060400160405280601a81526020017f62616c616e6365735461726765742e72657365727665303a20200000000000008152508360000151611648565b610c246040518060400160405280601a81526020017f62616c616e6365735461726765742e72657365727665313a20200000000000008152508360200151611648565b610c676040518060400160405280601a81526020017f62616c616e63657343757272656e742e72657365727665303a200000000000008152508460000151611648565b610caa6040518060400160405280601a81526020017f62616c616e63657343757272656e742e72657365727665313a200000000000008152508460200151611648565b8251602080850151845191850151909190610cc36120b4565b8815610e6157670de0b6b3a7640000861015610d9d5760405180610120016040528060001515815260200160001515815260200160405180604001604052808e602001516001600160a01b031681526020018e604001516001600160a01b0316815250815260200160405180608001604052808781526020018881526020018581526020018681525081526020018c602001516001600160a01b031681526020018c604001516001600160a01b031681526020018c60a001516001600160a01b031681526020016000815260200160008152509050610ff5565b60405180610120016040528060001515815260200160011515815260200160405180604001604052808e604001516001600160a01b031681526020018e602001516001600160a01b0316815250815260200160405180608001604052808881526020018781526020018681526020018581525081526020018c602001516001600160a01b031681526020018c604001516001600160a01b031681526020018c60a001516001600160a01b031681526020016000815260200160008152509050610ff5565b670de0b6b3a7640000861015610f355760405180610120016040528060001515815260200160011515815260200160405180604001604052808e604001516001600160a01b031681526020018e602001516001600160a01b0316815250815260200160405180608001604052808781526020018881526020018581526020018681525081526020018c602001516001600160a01b031681526020018c604001516001600160a01b031681526020018c60a001516001600160a01b031681526020016000815260200160008152509050610ff5565b60405180610120016040528060001515815260200160001515815260200160405180604001604052808e602001516001600160a01b031681526020018e604001516001600160a01b0316815250815260200160405180608001604052808881526020018781526020018681526020018581525081526020018c602001516001600160a01b031681526020018c604001516001600160a01b031681526020018c60a001516001600160a01b0316815260200160008152602001600081525090505b80602001511561103e5760408082015180516020918201516060808601518051948101519581015191015161102e958795929091611691565b61010083015260e0820152611079565b60408082015180516020918201516060808601518051948101519581015191015161106d9587959290916116f8565b61010083015260e08201525b9a9950505050505050505050565b6110b26040518060800160405280600081526020016000815260200160008152602001600081525090565b6000826001600160a01b0316630dfe16816040518163ffffffff1660e01b815260040160206040518083038186803b1580156110ed57600080fd5b505afa158015611101573d6000803e3d6000fd5b505050506040513d601f19601f82011682018060405250810190611125919061233c565b90506000836001600160a01b031663d21220a76040518163ffffffff1660e01b815260040160206040518083038186803b15801561116257600080fd5b505afa158015611176573d6000803e3d6000fd5b505050506040513d601f19601f8201168201806040525081019061119a919061233c565b90506000826001600160a01b031663313ce5676040518163ffffffff1660e01b815260040160206040518083038186803b1580156111d757600080fd5b505afa1580156111eb573d6000803e3d6000fd5b505050506040513d601f19601f8201168201806040525081019061120f91906126fd565b60ff1690506000826001600160a01b031663313ce5676040518163ffffffff1660e01b815260040160206040518083038186803b15801561124f57600080fd5b505afa158015611263573d6000803e3d6000fd5b505050506040513d601f19601f8201168201806040525081019061128791906126fd565b60ff169050600061129983600a612ad5565b905060006112a883600a612ad5565b604080516080810182529384526020840191909152670de0b6b3a76400009083018190526060830152509695505050505050565b83516001146113375760405162461bcd60e51b815260206004820152602160248201527f4f6e6c79206f6e6520746f6b656e2073686f756c6420626520696e20666c61736044820152600d60fb1b6064820152608401610601565b600080600083806020019051810190611350919061251e565b92509250925082608001516001600160a01b03168760008151811061137757611377612bc9565b60200260200101516001600160a01b0316146113e05760405162461bcd60e51b815260206004820152602260248201527f4f6e6c79205553444320746f6b656e2073686f756c6420626520696e20666c616044820152610e6d60f31b6064820152608401610601565b846000815181106113f3576113f3612bc9565b602002602001015160001461144a5760405162461bcd60e51b815260206004820152601860248201527f4f6e6c79207a65726f206665652061636365707461626c6500000000000000006044820152606401610601565b60808301516040516370a0823160e01b81523060048201526000916001600160a01b0316906370a082319060240160206040518083038186803b15801561149057600080fd5b505afa1580156114a4573d6000803e3d6000fd5b505050506040513d601f19601f820116820180604052508101906114c891906126e4565b9050828460e001516114da9190612a58565b8110156115295760405162461bcd60e51b815260206004820152601d60248201527f4e6f7420656e6f75676820757364632073656e6420746f20666c6173680000006044820152606401610601565b611532846115dd565b608084015160e085015160405163a9059cbb60e01b815273ba12222222228d8ba445958a75a0704d566bf2c8600482015260248101919091526001600160a01b039091169063a9059cbb90604401602060405180830381600087803b15801561159a57600080fd5b505af11580156115ae573d6000803e3d6000fd5b505050506040513d601f19601f820116820180604052508101906115d29190612503565b505050505050505050565b80602001511561161957604080820151805160209182015160608086015180519481015195810151910151611616958795929091611748565b50565b604080820151805160209182015160608086015180519481015195810151910151611616958795929091611802565b61168d828260405160240161165e9291906128dc565b60408051601f198184030181529190526020810180516001600160e01b03166309710a9d60e41b1790526118a6565b5050565b60008060006116a2878787876118c7565b90506116cb60405180604001604052806005815260200164030a4b71d160dd1b81525082611648565b60006116d682611987565b905060006116e5828a8a6119a1565b919c919b50909950505050505050505050565b6000806000611709878787876118c7565b905061173260405180604001604052806005815260200164030a4b71d160dd1b81525082611648565b8060006116e5611743838b8b6119a1565b611987565b6000611756858585856118c7565b905061177f60405180604001604052806005815260200164030a4b71d160dd1b81525082611648565b600061178a82611987565b905060006117998288886119a1565b90506103e88084116117e95760405162461bcd60e51b815260206004820152601960248201527861496e20746f6f206c6f772c20736b697020616374696f6e7360381b6044820152606401610601565b6117f58b8b8b866119e2565b5050505050505050505050565b6000611810858585856118c7565b905061183960405180604001604052806005815260200164030a4b71d160dd1b81525082611648565b80600061184a6117438389896119a1565b90506103e880841161189a5760405162461bcd60e51b815260206004820152601960248201527861496e20746f6f206c6f772c20736b697020616374696f6e7360381b6044820152606401610601565b6117f58b8b8b86611a07565b80516a636f6e736f6c652e6c6f67602083016000808483855afa5050505050565b6000806118ed836118e7866118e189818c623cda20611a23565b90611a23565b90611aa9565b90506000611900876118e1816009611a23565b905060006119108861175e611a23565b905060006119358261192f620f2ad96119298888611b04565b90611b04565b90611b63565b9050600061194282611bbf565b905060006119528b6107cd611a23565b905060006119668261192f6103e586611b04565b90506000611976826107ca611aa9565b9d9c50505050505050505050505050565b600061199b61270c6118e784612710611a23565b92915050565b60006103e56103e8826119b48784611a23565b905060006119c28287611a23565b905060006119d4836119298a87611a23565b905060006110798383611aa9565b60006119ee8583611c18565b905060006119fe86868685611db1565b50505050505050565b6000611a1585858585611db1565b905060006119fe8683611f72565b600082611a325750600061199b565b6000611a3e8385612b7d565b905082611a4b8583612a70565b14611aa25760405162461bcd60e51b815260206004820152602160248201527f536166654d6174683a206d756c7469706c69636174696f6e206f766572666c6f6044820152607760f81b6064820152608401610601565b9392505050565b6000808211611afa5760405162461bcd60e51b815260206004820152601a60248201527f536166654d6174683a206469766973696f6e206279207a65726f0000000000006044820152606401610601565b611aa28284612a70565b600080611b118385612a58565b905083811015611aa25760405162461bcd60e51b815260206004820152601b60248201527f536166654d6174683a206164646974696f6e206f766572666c6f7700000000006044820152606401610601565b600082821115611bb55760405162461bcd60e51b815260206004820152601e60248201527f536166654d6174683a207375627472616374696f6e206f766572666c6f7700006044820152606401610601565b611aa28284612b9c565b6000806002611bcf846001612a58565b611bd99190612a70565b90508291505b81811015611c1257905080600281611bf78186612a70565b611c019190612a58565b611c0b9190612a70565b9050611bdf565b50919050565b6000808360a001516001600160a01b031663d2f7265a6040518163ffffffff1660e01b8152600401602060405180830381600087803b158015611c5a57600080fd5b505af1158015611c6e573d6000803e3d6000fd5b505050506040513d601f19601f82011682018060405250810190611c92919061233c565b608085015160405163095ea7b360e01b81526001600160a01b0380841660048301526024820187905292935091169063095ea7b390604401602060405180830381600087803b158015611ce457600080fd5b505af1158015611cf8573d6000803e3d6000fd5b505050506040513d601f19601f82011682018060405250810190611d1c9190612503565b50608084015160405163cce7ec1360e01b81526001600160a01b0391821660048201526024810185905260009183169063cce7ec13906044015b602060405180830381600087803b158015611d7057600080fd5b505af1158015611d84573d6000803e3d6000fd5b505050506040513d601f19601f82011682018060405250810190611da891906126e4565b95945050505050565b60c084015160405163095ea7b360e01b81526001600160a01b0391821660048201526024810183905260009185169063095ea7b390604401602060405180830381600087803b158015611e0357600080fd5b505af1158015611e17573d6000803e3d6000fd5b505050506040513d601f19601f82011682018060405250810190611e3b9190612503565b506040805160028082526060820183526000926020830190803683370190505090508481600081518110611e7157611e71612bc9565b60200260200101906001600160a01b031690816001600160a01b0316815250508381600181518110611ea557611ea5612bc9565b6001600160a01b03928316602091820292909201015260c08701516040516338ed173960e01b815260009291909116906338ed173990611ef390879085908790309060001990600401612968565b600060405180830381600087803b158015611f0d57600080fd5b505af1158015611f21573d6000803e3d6000fd5b505050506040513d6000823e601f3d908101601f19168201604052611f49919081019061246b565b905080600181518110611f5e57611f5e612bc9565b602002602001015192505050949350505050565b6000808360a001516001600160a01b031663d2f7265a6040518163ffffffff1660e01b8152600401602060405180830381600087803b158015611fb457600080fd5b505af1158015611fc8573d6000803e3d6000fd5b505050506040513d601f19601f82011682018060405250810190611fec919061233c565b60a085015160405163095ea7b360e01b81526001600160a01b0380841660048301526024820187905292935091169063095ea7b390604401602060405180830381600087803b15801561203e57600080fd5b505af1158015612052573d6000803e3d6000fd5b505050506040513d601f19601f820116820180604052508101906120769190612503565b5060808401516040516301e9a69560e41b81526001600160a01b03918216600482015260248101859052600091831690631e9a695090604401611d56565b6040805161012081018252600080825260208083018290528351808501855282815290810191909152909182019081526020016121126040518060800160405280600081526020016000815260200160008152602001600081525090565b815260006020820181905260408201819052606082018190526080820181905260a09091015290565b805161214681612bf5565b919050565b600082601f83011261215c57600080fd5b8135602061217161216c83612a34565b612a03565b80838252828201915082860187848660051b890101111561219157600080fd5b60005b858110156121b057813584529284019290840190600101612194565b5090979650505050505050565b8051801515811461214657600080fd5b600082601f8301126121de57600080fd5b813567ffffffffffffffff8111156121f8576121f8612bdf565b61220b601f8201601f1916602001612a03565b81815284602083860101111561222057600080fd5b816020850160208301376000918101602001919091529392505050565b60006080828403121561224f57600080fd5b6040516080810181811067ffffffffffffffff8211171561227257612272612bdf565b8060405250809150825181526020830151602082015260408301516040820152606083015160608201525092915050565b6000604082840312156122b557600080fd5b6040516040810181811067ffffffffffffffff821117156122d8576122d8612bdf565b806040525080915082516122eb81612bf5565b815260208301516122fb81612bf5565b6020919091015292915050565b80516001600160701b038116811461214657600080fd5b60006020828403121561233157600080fd5b8135611aa281612bf5565b60006020828403121561234e57600080fd5b8151611aa281612bf5565b6000806000806080858703121561236f57600080fd5b843567ffffffffffffffff8082111561238757600080fd5b818701915087601f83011261239b57600080fd5b813560206123ab61216c83612a34565b8083825282820191508286018c848660051b89010111156123cb57600080fd5b600096505b848710156123f75780356123e381612bf5565b8352600196909601959183019183016123d0565b509850508801359250508082111561240e57600080fd5b61241a8883890161214b565b9450604087013591508082111561243057600080fd5b61243c8883890161214b565b9350606087013591508082111561245257600080fd5b5061245f878288016121cd565b91505092959194509250565b6000602080838503121561247e57600080fd5b825167ffffffffffffffff81111561249557600080fd5b8301601f810185136124a657600080fd5b80516124b461216c82612a34565b80828252848201915084840188868560051b87010111156124d457600080fd5b600094505b838510156124f75780518352600194909401939185019185016124d9565b50979650505050505050565b60006020828403121561251557600080fd5b611aa2826121bd565b60008060008385036101e081121561253557600080fd5b6101a08082121561254557600080fd5b61254d6129d9565b9150612558866121bd565b8252612566602087016121bd565b602083015261257887604088016122a3565b604083015261258a876080880161223d565b606083015261010061259d81880161213b565b60808401526125af610120880161213b565b60a08401526125c1610140880161213b565b60c084015261016087015160e08401526101808701519083015285015190935091506125f06101c0850161213b565b90509250925092565b600060c0828403121561260b57600080fd5b60405160c0810181811067ffffffffffffffff8211171561262e5761262e612bdf565b604052823561263c81612bf5565b8152602083013561264c81612bf5565b6020820152604083013561265f81612bf5565b80604083015250606083013560608201526080830135608082015260a083013561268881612bf5565b60a08201529392505050565b6000806000606084860312156126a957600080fd5b6126b284612308565b92506126c060208501612308565b9150604084015163ffffffff811681146126d957600080fd5b809150509250925092565b6000602082840312156126f657600080fd5b5051919050565b60006020828403121561270f57600080fd5b815160ff81168114611aa257600080fd5b6000815180845260005b818110156127465760208185018101518683018201520161272a565b81811115612758576000602083870101525b50601f01601f19169290920160200192915050565b8051151582526020810151612786602084018215159052565b5060408101516127af604084018280516001600160a01b03908116835260209182015116910152565b5060608181015180516080850152602081015160a0850152604081015160c08501529081015160e08401525060808101516101006127f7818501836001600160a01b03169052565b60a08301516001600160a01b0390811661012086015260c08401511661014085015260e0830151610160850152909101516101809092019190915250565b6001600160a01b0385811682526080602080840182905286519184018290526000928782019290919060a0860190855b81811015612883578551851683529483019491830191600101612865565b5050858103604087015287518082529082019350915080870160005b838110156128bb5781518552938201939082019060010161289f565b5050505082810360608401526128d18185612720565b979650505050505050565b6040815260006128ef6040830185612720565b90508260208301529392505050565b815181526020808301519082015260408083015190820152606080830151908201526080810161199b565b6101a0810161199b828461276d565b6101e08101612947828661276d565b6101a08201939093526001600160a01b03919091166101c090910152919050565b600060a082018783526020878185015260a0604085015281875180845260c086019150828901935060005b818110156129b85784516001600160a01b031683529383019391830191600101612993565b50506001600160a01b03969096166060850152505050608001529392505050565b604051610120810167ffffffffffffffff811182821017156129fd576129fd612bdf565b60405290565b604051601f8201601f1916810167ffffffffffffffff81118282101715612a2c57612a2c612bdf565b604052919050565b600067ffffffffffffffff821115612a4e57612a4e612bdf565b5060051b60200190565b60008219821115612a6b57612a6b612bb3565b500190565b600082612a8d57634e487b7160e01b600052601260045260246000fd5b500490565b600181815b80851115612acd578160001904821115612ab357612ab3612bb3565b80851615612ac057918102915b93841c9390800290612a97565b509250929050565b6000611aa28383600082612aeb5750600161199b565b81612af85750600061199b565b8160018114612b0e5760028114612b1857612b34565b600191505061199b565b60ff841115612b2957612b29612bb3565b50506001821b61199b565b5060208310610133831016604e8410600b8410161715612b57575081810a61199b565b612b618383612a92565b8060001904821115612b7557612b75612bb3565b029392505050565b6000816000190483118215151615612b9757612b97612bb3565b500290565b600082821015612bae57612bae612bb3565b500390565b634e487b7160e01b600052601160045260246000fd5b634e487b7160e01b600052603260045260246000fd5b634e487b7160e01b600052604160045260246000fd5b6001600160a01b038116811461161657600080fdfe62616c616e63657343757272656e742e72657365727665314e6f726d616c697a65643a2062616c616e6365735461726765742e72657365727665314e6f726d616c697a65643a202062616c616e6365735461726765742e72657365727665304e6f726d616c697a65643a202062616c616e63657343757272656e742e72657365727665304e6f726d616c697a65643a20a26469706673582212202461e4d1c1bf339d4270ea5be59eac03004b5664010d9fb0005a7b6af22909ee64736f6c63430008070033",
  "devdoc": {
    "kind": "dev",
    "methods": {
      "receiveFlashLoan(address[],uint256[],uint256[],bytes)": {
        "details": "When `flashLoan` is called on the Vault, it invokes the `receiveFlashLoan` hook on the recipient. At the time of the call, the Vault will have transferred `amounts` for `tokens` to the recipient. Before this call returns, the recipient must have transferred `amounts` plus `feeAmounts` for each token back to the Vault, or else the entire flash loan will revert. `userData` is the same value passed in the `IVault.flashLoan` call."
      }
    },
    "version": 1
  },
  "userdoc": {
    "kind": "user",
    "methods": {},
    "version": 1
  },
  "storageLayout": {
    "storage": [],
    "types": null
  }
}