{
  "_format": "hh-sol-artifact-1",
  "contractName": "ArbitrageQS",
  "sourceName": "contracts/ArbitrageQS.sol",
  "abi": [
    {
      "inputs": [
        {
          "internalType": "address",
          "name": "pool",
          "type": "address"
        }
      ],
      "name": "balancesQsPool",
      "outputs": [
        {
          "components": [
            {
              "internalType": "uint256",
              "name": "reserve0",
              "type": "uint256"
            },
            {
              "internalType": "uint256",
              "name": "reserve1",
              "type": "uint256"
            },
            {
              "internalType": "uint256",
              "name": "reserve0Normalized",
              "type": "uint256"
            },
            {
              "internalType": "uint256",
              "name": "reserve1Normalized",
              "type": "uint256"
            }
          ],
          "internalType": "struct ArbitrageQS.Balances",
          "name": "",
          "type": "tuple"
        }
      ],
      "stateMutability": "view",
      "type": "function"
    },
    {
      "inputs": [],
      "name": "changePriceBoundDenominator",
      "outputs": [
        {
          "internalType": "uint256",
          "name": "",
          "type": "uint256"
        }
      ],
      "stateMutability": "view",
      "type": "function"
    },
    {
      "inputs": [
        {
          "components": [
            {
              "internalType": "address",
              "name": "qsPool",
              "type": "address"
            },
            {
              "internalType": "address",
              "name": "u3Pool",
              "type": "address"
            },
            {
              "internalType": "bool",
              "name": "isUsdcLeft",
              "type": "bool"
            },
            {
              "internalType": "address",
              "name": "usdc",
              "type": "address"
            },
            {
              "internalType": "address",
              "name": "xToken",
              "type": "address"
            },
            {
              "internalType": "address",
              "name": "usdPlus",
              "type": "address"
            },
            {
              "internalType": "uint256",
              "name": "lowerChangePriceBound",
              "type": "uint256"
            },
            {
              "internalType": "uint256",
              "name": "upperChangePriceBound",
              "type": "uint256"
            },
            {
              "internalType": "address",
              "name": "qsRouter",
              "type": "address"
            },
            {
              "internalType": "address",
              "name": "u3Router",
              "type": "address"
            }
          ],
          "internalType": "struct ArbitrageQS.Params",
          "name": "params",
          "type": "tuple"
        }
      ],
      "name": "fix",
      "outputs": [],
      "stateMutability": "nonpayable",
      "type": "function"
    },
    {
      "inputs": [
        {
          "components": [
            {
              "internalType": "address",
              "name": "qsPool",
              "type": "address"
            },
            {
              "internalType": "address",
              "name": "u3Pool",
              "type": "address"
            },
            {
              "internalType": "bool",
              "name": "isUsdcLeft",
              "type": "bool"
            },
            {
              "internalType": "address",
              "name": "usdc",
              "type": "address"
            },
            {
              "internalType": "address",
              "name": "xToken",
              "type": "address"
            },
            {
              "internalType": "address",
              "name": "usdPlus",
              "type": "address"
            },
            {
              "internalType": "uint256",
              "name": "lowerChangePriceBound",
              "type": "uint256"
            },
            {
              "internalType": "uint256",
              "name": "upperChangePriceBound",
              "type": "uint256"
            },
            {
              "internalType": "address",
              "name": "qsRouter",
              "type": "address"
            },
            {
              "internalType": "address",
              "name": "u3Router",
              "type": "address"
            }
          ],
          "internalType": "struct ArbitrageQS.Params",
          "name": "params",
          "type": "tuple"
        }
      ],
      "name": "getFixParams",
      "outputs": [
        {
          "components": [
            {
              "internalType": "bool",
              "name": "skip",
              "type": "bool"
            },
            {
              "internalType": "bool",
              "name": "useXtoUsdc",
              "type": "bool"
            },
            {
              "internalType": "address[3]",
              "name": "tokens",
              "type": "address[3]"
            },
            {
              "internalType": "uint256[4]",
              "name": "reserves",
              "type": "uint256[4]"
            },
            {
              "internalType": "address",
              "name": "usdc",
              "type": "address"
            },
            {
              "internalType": "address",
              "name": "usdPlus",
              "type": "address"
            },
            {
              "internalType": "address",
              "name": "qsRouter",
              "type": "address"
            },
            {
              "internalType": "address",
              "name": "u3Router",
              "type": "address"
            },
            {
              "internalType": "uint256",
              "name": "usdcIn",
              "type": "uint256"
            },
            {
              "internalType": "uint256",
              "name": "usdcOut",
              "type": "uint256"
            }
          ],
          "internalType": "struct ArbitrageQS.FixParams",
          "name": "",
          "type": "tuple"
        }
      ],
      "stateMutability": "view",
      "type": "function"
    },
    {
      "inputs": [
        {
          "internalType": "uint256",
          "name": "token0Decimals",
          "type": "uint256"
        },
        {
          "internalType": "uint256",
          "name": "token1Decimals",
          "type": "uint256"
        },
        {
          "internalType": "uint160",
          "name": "sqrtRatioX96",
          "type": "uint160"
        }
      ],
      "name": "getPriceUniV3",
      "outputs": [
        {
          "internalType": "uint256",
          "name": "",
          "type": "uint256"
        }
      ],
      "stateMutability": "view",
      "type": "function"
    },
    {
      "inputs": [
        {
          "internalType": "address",
          "name": "pool",
          "type": "address"
        }
      ],
      "name": "getSampleTargetsUniV3",
      "outputs": [
        {
          "components": [
            {
              "internalType": "uint256",
              "name": "reserve0",
              "type": "uint256"
            },
            {
              "internalType": "uint256",
              "name": "reserve1",
              "type": "uint256"
            },
            {
              "internalType": "uint256",
              "name": "reserve0Normalized",
              "type": "uint256"
            },
            {
              "internalType": "uint256",
              "name": "reserve1Normalized",
              "type": "uint256"
            }
          ],
          "internalType": "struct ArbitrageQS.Balances",
          "name": "",
          "type": "tuple"
        }
      ],
      "stateMutability": "view",
      "type": "function"
    }
  ],
  "bytecode": "0x608060405234801561001057600080fd5b50612ad6806100206000396000f3fe608060405234801561001057600080fd5b50600436106100625760003560e01c80632edde981146100675780634a5ddef8146100b6578063552d41bf146100cb57806368969d88146100de57806394a2443e146100ff578063cac5ffc614610109575b600080fd5b61007a610075366004612277565b610129565b6040516100ad91908151815260208083015190820152604080830151908201526060918201519181019190915260800190565b60405180910390f35b6100c96100c436600461237b565b610439565b005b61007a6100d9366004612277565b6104bc565b6100f16100ec366004612534565b610816565b6040519081526020016100ad565b6100f1620f424081565b61011c61011736600461237b565b610866565b6040516100ad9190612699565b6101546040518060800160405280600081526020016000815260200160008152602001600081525090565b600080836001600160a01b0316630902f1ac6040518163ffffffff1660e01b815260040160606040518083038186803b15801561019057600080fd5b505afa1580156101a4573d6000803e3d6000fd5b505050506040513d601f19601f820116820180604052508101906101c89190612435565b50915091506000846001600160a01b0316630dfe16816040518163ffffffff1660e01b815260040160206040518083038186803b15801561020857600080fd5b505afa15801561021c573d6000803e3d6000fd5b505050506040513d601f19601f820116820180604052508101906102409190612294565b90506000856001600160a01b031663d21220a76040518163ffffffff1660e01b815260040160206040518083038186803b15801561027d57600080fd5b505afa158015610291573d6000803e3d6000fd5b505050506040513d601f19601f820116820180604052508101906102b59190612294565b90506000826001600160a01b031663313ce5676040518163ffffffff1660e01b815260040160206040518083038186803b1580156102f257600080fd5b505afa158015610306573d6000803e3d6000fd5b505050506040513d601f19601f8201168201806040525081019061032a9190612562565b60ff1690506000826001600160a01b031663313ce5676040518163ffffffff1660e01b815260040160206040518083038186803b15801561036a57600080fd5b505afa15801561037e573d6000803e3d6000fd5b505050506040513d601f19601f820116820180604052508101906103a29190612562565b60ff16905060006103b483601261294a565b6103bf90600a612883565b6103d2906001600160701b03891661292b565b905060006103e183601261294a565b6103ec90600a612883565b6103ff906001600160701b03891661292b565b604080516080810182526001600160701b039a8b168152989099166020890152978701919091525050505060608201929092529392505050565b600061044482610866565b9050806020015115610488576040818101518051602080830151928401516060808701518051938101519681015191015161048496889694929091611058565b5050565b6040818101518051602080830151928401516060808701518051938101519681015191015161048496889694929091611148565b6104e76040518060800160405280600081526020016000815260200160008152602001600081525090565b6000826001600160a01b0316633850c7bd6040518163ffffffff1660e01b815260040160e06040518083038186803b15801561052257600080fd5b505afa158015610536573d6000803e3d6000fd5b505050506040513d601f19601f8201168201806040525081019061055a9190612485565b50505050505090506000836001600160a01b0316630dfe16816040518163ffffffff1660e01b815260040160206040518083038186803b15801561059d57600080fd5b505afa1580156105b1573d6000803e3d6000fd5b505050506040513d601f19601f820116820180604052508101906105d59190612294565b90506000846001600160a01b031663d21220a76040518163ffffffff1660e01b815260040160206040518083038186803b15801561061257600080fd5b505afa158015610626573d6000803e3d6000fd5b505050506040513d601f19601f8201168201806040525081019061064a9190612294565b90506000826001600160a01b031663313ce5676040518163ffffffff1660e01b815260040160206040518083038186803b15801561068757600080fd5b505afa15801561069b573d6000803e3d6000fd5b505050506040513d601f19601f820116820180604052508101906106bf9190612562565b60ff1690506000826001600160a01b031663313ce5676040518163ffffffff1660e01b815260040160206040518083038186803b1580156106ff57600080fd5b505afa158015610713573d6000803e3d6000fd5b505050506040513d601f19601f820116820180604052508101906107379190612562565b60ff1690506000610749838388610816565b9050600061075884600a612883565b61076590620f424061292b565b9050600061077484600a612883565b61078190620f424061292b565b9050670de0b6b3a7640000610796828561292b565b6107a0919061282c565b905060006107af86601261294a565b6107ba90600a612883565b6107c4908461292b565b905060006107d386601261294a565b6107de90600a612883565b6107e8908461292b565b6040805160808101825295865260208601949094529284019190915250606082015298975050505050505050565b600080610824838686611222565b9050600061083c828368010000000000000000611323565b905060126108598261084f83600a612883565b600160801b611323565b93505050505b9392505050565b61086e612189565b600061087d8360000151610129565b9050600061088e84602001516104bc565b90506108b6604051806060016040528060248152602001612a5960249139826040015161149f565b6108dc604051806060016040528060248152602001612a3560249139826060015161149f565b610902604051806060016040528060248152602001612a7d60249139836040015161149f565b610928604051806060016040528060248152602001612a1160249139836060015161149f565b6040810151670de0b6b3a764000090610941908261292b565b9050816060015181610953919061282c565b9050826060015181610965919061292b565b9050826040015181610977919061282c565b90506109a86040518060400160405280600d81526020016c031b430b733b2a83934b1b29d1609d1b8152508261149f565b808560c001511080156109be57508460e0015181105b15610a54575050604080516101408101825260018152600060208083018290528351606080820186528382528183018490528186018490528486019190915284516080808201875284825292810184905294850183905284810183905283019390935291810182905260a0810182905260c0810182905260e0810182905261010081018290526101208101919091529392505050565b610a976040518060400160405280601a81526020017f62616c616e6365735461726765742e72657365727665303a2020000000000000815250836000015161149f565b610ada6040518060400160405280601a81526020017f62616c616e6365735461726765742e72657365727665313a2020000000000000815250836020015161149f565b610b1d6040518060400160405280601a81526020017f62616c616e63657343757272656e742e72657365727665303a20000000000000815250846000015161149f565b610b606040518060400160405280601a81526020017f62616c616e63657343757272656e742e72657365727665313a20000000000000815250846020015161149f565b8251602080850151845191850151909190610b79612189565b896040015115610da157670de0b6b3a7640000861015610c9a5760405180610140016040528060001515815260200160011515815260200160405180606001604052808d606001516001600160a01b03166001600160a01b031681526020018d608001516001600160a01b03166001600160a01b031681526020018d60a001516001600160a01b03166001600160a01b0316815250815260200160405180608001604052808781526020018881526020018581526020018681525081526020018b606001516001600160a01b031681526020018b60a001516001600160a01b031681526020018b61010001516001600160a01b031681526020018b61012001516001600160a01b031681526020016000815260200160008152509050610fbb565b60405180610140016040528060001515815260200160001515815260200160405180606001604052808d60a001516001600160a01b03166001600160a01b031681526020018d608001516001600160a01b03166001600160a01b031681526020018d606001516001600160a01b03166001600160a01b0316815250815260200160405180608001604052808881526020018781526020018681526020018581525081526020018b606001516001600160a01b031681526020018b60a001516001600160a01b031681526020018b61010001516001600160a01b031681526020018b61012001516001600160a01b031681526020016000815260200160008152509050610fbb565b670de0b6b3a7640000861015610eb85760405180610140016040528060001515815260200160001515815260200160405180606001604052808d60a001516001600160a01b03166001600160a01b031681526020018d608001516001600160a01b03166001600160a01b031681526020018d606001516001600160a01b03166001600160a01b0316815250815260200160405180608001604052808781526020018881526020018581526020018681525081526020018b606001516001600160a01b031681526020018b60a001516001600160a01b031681526020018b61010001516001600160a01b031681526020018b61012001516001600160a01b031681526020016000815260200160008152509050610fbb565b60405180610140016040528060001515815260200160011515815260200160405180606001604052808d606001516001600160a01b03166001600160a01b031681526020018d608001516001600160a01b03166001600160a01b031681526020018d60a001516001600160a01b03166001600160a01b0316815250815260200160405180608001604052808881526020018781526020018681526020018581525081526020018b606001516001600160a01b031681526020018b60a001516001600160a01b031681526020018b61010001516001600160a01b031681526020018b61012001516001600160a01b0316815260200160008152602001600081525090505b80602001511561100a5760408181015180516020808301519284015160608087015180519381015196810151910151610ff9968896949290916114e4565b61012083015261010082015261104b565b6040818101518051602080830151928401516060808701518051938101519681015191015161103e96889694929091611568565b6101208301526101008201525b9998505050505050505050565b6000611066858585856115e0565b905061108f60405180604001604052806005815260200164030a4b71d160dd1b8152508261149f565b60006110a58461109f848661169a565b90611722565b90506110b7606461109f83606561169a565b90508060006110cf6110ca858a8a61177d565b6117cc565b905066038d7ea4c680008085116111295760405162461bcd60e51b815260206004820152601960248201527861496e20746f6f206c6f772c20736b697020616374696f6e7360381b60448201526064015b60405180910390fd5b846111388e8e8e8e89866117e0565b5050505050505050505050505050565b6000611156858585856115e0565b905061117f60405180604001604052806005815260200164030a4b71d160dd1b8152508261149f565b600061118a826117cc565b9050600061119982888861177d565b90506111a98461109f838861169a565b90506103e88084116111f95760405162461bcd60e51b815260206004820152601960248201527861496e20746f6f206c6f772c20736b697020616374696f6e7360381b6044820152606401611120565b6000611204856117cc565b90506112138d8d8d8d85611819565b50505050505050505050505050565b600081831461131457818311156112a857600061123f8484611850565b905061126a61124f826002611722565b61125a90600a612883565b6001600160a01b0387169061169a565b9150611277600282612961565b600114156112a25761129f827003298b075b4b6a5240945790619b37fd4a600160801b611323565b91505b5061085f565b60006112b48385611850565b90506112df6112c4826002611722565b6112cf90600a612883565b6001600160a01b03871690611722565b91506112ec600282612961565b600114156112a25761129f82600160801b7003298b075b4b6a5240945790619b37fd4a611323565b5050506001600160a01b031690565b60008080600019858709858702925082811083820303915050806000141561135d576000841161135257600080fd5b50829004905061085f565b80841161136957600080fd5b6000848688098084039381119092039190508460008161138881612975565b1696879004969485900494905060008190038190046001016113aa818661292b565b9095179460006113bb89600361292b565b60021890506113ca818a61292b565b6113d590600261294a565b6113df908261292b565b90506113eb818a61292b565b6113f690600261294a565b611400908261292b565b905061140c818a61292b565b61141790600261294a565b611421908261292b565b905061142d818a61292b565b61143890600261294a565b611442908261292b565b905061144e818a61292b565b61145990600261294a565b611463908261292b565b905061146f818a61292b565b61147a90600261294a565b611484908261292b565b9050611490818861292b565b9b9a5050505050505050505050565b61048482826040516024016114b59291906125d2565b60408051601f198184030181529190526020810180516001600160e01b03166309710a9d60e41b1790526118ac565b60008060006114f5878787876115e0565b905061151e60405180604001604052806005815260200164030a4b71d160dd1b8152508261149f565b600061152e8661109f848861169a565b9050611540606461109f83606561169a565b90508060006115536110ca858c8c61177d565b919e919d50909b505050505050505050505050565b6000806000611579878787876115e0565b90506115a260405180604001604052806005815260200164030a4b71d160dd1b8152508261149f565b60006115ad826117cc565b905060006115bc828a8a61177d565b90506115cc8661109f838a61169a565b919d919c50909a5050505050505050505050565b6000806116008361109f866115fa89818c623cda2061169a565b9061169a565b90506000611613876115fa81600961169a565b905060006116238861175e61169a565b9050600061164882611642620f2ad961163c88886118cd565b906118cd565b90611850565b905060006116558261192c565b905060006116658b6107cd61169a565b90506000611679826116426103e5866118cd565b90506000611689826107ca611722565b9d9c50505050505050505050505050565b6000826116a95750600061171c565b60006116b5838561292b565b9050826116c2858361282c565b146117195760405162461bcd60e51b815260206004820152602160248201527f536166654d6174683a206d756c7469706c69636174696f6e206f766572666c6f6044820152607760f81b6064820152608401611120565b90505b92915050565b60008082116117735760405162461bcd60e51b815260206004820152601a60248201527f536166654d6174683a206469766973696f6e206279207a65726f0000000000006044820152606401611120565b611719828461282c565b60006103e56103e882611790878461169a565b9050600061179e828761169a565b905060006117b08361163c8a8761169a565b905060006117be8383611722565b9a9950505050505050505050565b600061171c61270c61109f8461271061169a565b60006117ef8787878587611985565b905060006117ff88878786611b5b565b9050600061180d8983611d1c565b50505050505050505050565b60006118258683611eb5565b9050600061183587878785611b5b565b9050600061184588878785611ff7565b505050505050505050565b6000828211156118a25760405162461bcd60e51b815260206004820152601e60248201527f536166654d6174683a207375627472616374696f6e206f766572666c6f7700006044820152606401611120565b611719828461294a565b80516a636f6e736f6c652e6c6f67602083016000808483855afa5050505050565b6000806118da8385612814565b9050838110156117195760405162461bcd60e51b815260206004820152601b60248201527f536166654d6174683a206164646974696f6e206f766572666c6f7700000000006044820152606401611120565b600080600261193c846001612814565b611946919061282c565b90508291505b8181101561197f57905080600281611964818661282c565b61196e9190612814565b611978919061282c565b905061194c565b50919050565b60e085015160405163095ea7b360e01b81526001600160a01b0391821660048201526024810183905260009186169063095ea7b390604401602060405180830381600087803b1580156119d757600080fd5b505af11580156119eb573d6000803e3d6000fd5b505050506040513d601f19601f82011682018060405250810190611a0f919061235e565b50611a4f6040518060400160405280601b81526020017f7377617055334f757420616d6f756e74496e4d6178696d756d3a2000000000008152508361149f565b611a8660405180604001604052806015815260200174039bbb0b82a99a7baba1030b6b7bab73a27baba1d1605d1b8152508461149f565b60408051610100810182526001600160a01b03808816825286811660208301526101f482840152306060830152600019608083015260a0820186905260c08201859052600060e08084018290528a01519351631b67c43360e31b81529293909291169063db3e219890611afd90859060040161262f565b602060405180830381600087803b158015611b1757600080fd5b505af1158015611b2b573d6000803e3d6000fd5b505050506040513d601f19601f82011682018060405250810190611b4f919061251b565b98975050505050505050565b60c084015160405163095ea7b360e01b81526001600160a01b0391821660048201526024810183905260009185169063095ea7b390604401602060405180830381600087803b158015611bad57600080fd5b505af1158015611bc1573d6000803e3d6000fd5b505050506040513d601f19601f82011682018060405250810190611be5919061235e565b506040805160028082526060820183526000926020830190803683370190505090508481600081518110611c1b57611c1b6129be565b60200260200101906001600160a01b031690816001600160a01b0316815250508381600181518110611c4f57611c4f6129be565b6001600160a01b03928316602091820292909201015260c08701516040516338ed173960e01b815260009291909116906338ed173990611c9d90879085908790309060001990600401612748565b600060405180830381600087803b158015611cb757600080fd5b505af1158015611ccb573d6000803e3d6000fd5b505050506040513d6000823e601f3d908101601f19168201604052611cf391908101906122b1565b905080600181518110611d0857611d086129be565b602002602001015192505050949350505050565b6000808360a001516001600160a01b031663d2f7265a6040518163ffffffff1660e01b8152600401602060405180830381600087803b158015611d5e57600080fd5b505af1158015611d72573d6000803e3d6000fd5b505050506040513d601f19601f82011682018060405250810190611d969190612294565b60a085015160405163095ea7b360e01b81526001600160a01b0380841660048301526024820187905292935091169063095ea7b390604401602060405180830381600087803b158015611de857600080fd5b505af1158015611dfc573d6000803e3d6000fd5b505050506040513d601f19601f82011682018060405250810190611e20919061235e565b5060808401516040516301e9a69560e41b81526001600160a01b03918216600482015260248101859052600091831690631e9a6950906044015b602060405180830381600087803b158015611e7457600080fd5b505af1158015611e88573d6000803e3d6000fd5b505050506040513d601f19601f82011682018060405250810190611eac919061251b565b95945050505050565b6000808360a001516001600160a01b031663d2f7265a6040518163ffffffff1660e01b8152600401602060405180830381600087803b158015611ef757600080fd5b505af1158015611f0b573d6000803e3d6000fd5b505050506040513d601f19601f82011682018060405250810190611f2f9190612294565b608085015160405163095ea7b360e01b81526001600160a01b0380841660048301526024820187905292935091169063095ea7b390604401602060405180830381600087803b158015611f8157600080fd5b505af1158015611f95573d6000803e3d6000fd5b505050506040513d601f19601f82011682018060405250810190611fb9919061235e565b50608084015160405163cce7ec1360e01b81526001600160a01b0391821660048201526024810185905260009183169063cce7ec1390604401611e5a565b60e084015160405163095ea7b360e01b81526001600160a01b0391821660048201526024810183905260009185169063095ea7b390604401602060405180830381600087803b15801561204957600080fd5b505af115801561205d573d6000803e3d6000fd5b505050506040513d601f19601f82011682018060405250810190612081919061235e565b506120b560405180604001604052806011815260200170039bbb0b82a999030b6b7bab73a24b71d1607d1b8152508361149f565b60408051610100810182526001600160a01b03808716825285811660208301526101f482840152306060830152600019608083015260a08201859052600060c0830181905260e0808401829052890151935163414bf38960e01b81529293909291169063414bf3899061212c90859060040161262f565b602060405180830381600087803b15801561214657600080fd5b505af115801561215a573d6000803e3d6000fd5b505050506040513d601f19601f8201168201806040525081019061217e919061251b565b979650505050505050565b6040805161014081018252600080825260208201529081016121a96121e6565b81526020016121b6612204565b815260006020820181905260408201819052606082018190526080820181905260a0820181905260c09091015290565b60405180606001604052806003906020820280368337509192915050565b60405180608001604052806004906020820280368337509192915050565b803561222d816129ea565b919050565b803561222d81612a02565b80516001600160701b038116811461222d57600080fd5b805161ffff8116811461222d57600080fd5b805160ff8116811461222d57600080fd5b60006020828403121561228957600080fd5b8135611719816129ea565b6000602082840312156122a657600080fd5b8151611719816129ea565b600060208083850312156122c457600080fd5b825167ffffffffffffffff808211156122dc57600080fd5b818501915085601f8301126122f057600080fd5b815181811115612302576123026129d4565b8060051b91506123138483016127e3565b8181528481019084860184860187018a101561232e57600080fd5b600095505b83861015612351578051835260019590950194918601918601612333565b5098975050505050505050565b60006020828403121561237057600080fd5b815161171981612a02565b6000610140828403121561238e57600080fd5b6123966127b9565b61239f83612222565b81526123ad60208401612222565b60208201526123be60408401612232565b60408201526123cf60608401612222565b60608201526123e060808401612222565b60808201526123f160a08401612222565b60a082015260c083013560c082015260e083013560e0820152610100612418818501612222565b9082015261012061242a848201612222565b908201529392505050565b60008060006060848603121561244a57600080fd5b6124538461223d565b92506124616020850161223d565b9150604084015163ffffffff8116811461247a57600080fd5b809150509250925092565b600080600080600080600060e0888a0312156124a057600080fd5b87516124ab816129ea565b8097505060208801518060020b81146124c357600080fd5b95506124d160408901612254565b94506124df60608901612254565b93506124ed60808901612254565b92506124fb60a08901612266565b915060c088015161250b81612a02565b8091505092959891949750929550565b60006020828403121561252d57600080fd5b5051919050565b60008060006060848603121561254957600080fd5b8335925060208401359150604084013561247a816129ea565b60006020828403121561257457600080fd5b61171982612266565b8060005b60038110156125a95781516001600160a01b0316845260209384019390910190600101612581565b50505050565b8060005b60048110156125a95781518452602093840193909101906001016125b3565b604081526000835180604084015260005b8181101561260057602081870181015160608684010152016125e3565b81811115612612576000606083860101525b50602083019390935250601f91909101601f191601606001919050565b610100810161171c828480516001600160a01b03908116835260208083015182169084015260408083015162ffffff16908401526060808301518216908401526080808301519084015260a0828101519084015260c0808301519084015260e09182015116910152565b8151151581526101e0810160208301516126b7602084018215159052565b5060408301516126ca604084018261257d565b5060608301516126dd60a08401826125af565b5060808301516101206126fa818501836001600160a01b03169052565b60a08501516001600160a01b0390811661014086015260c0860151811661016086015260e0860151166101808501526101008501516101a0850152909301516101c090920191909152919050565b600060a082018783526020878185015260a0604085015281875180845260c086019150828901935060005b818110156127985784516001600160a01b031683529383019391830191600101612773565b50506001600160a01b03969096166060850152505050608001529392505050565b604051610140810167ffffffffffffffff811182821017156127dd576127dd6129d4565b60405290565b604051601f8201601f1916810167ffffffffffffffff8111828210171561280c5761280c6129d4565b604052919050565b6000821982111561282757612827612992565b500190565b60008261283b5761283b6129a8565b500490565b600181815b8085111561287b57816000190482111561286157612861612992565b8085161561286e57918102915b93841c9390800290612845565b509250929050565b600061171983836000826128995750600161171c565b816128a65750600061171c565b81600181146128bc57600281146128c6576128e2565b600191505061171c565b60ff8411156128d7576128d7612992565b50506001821b61171c565b5060208310610133831016604e8410600b8410161715612905575081810a61171c565b61290f8383612840565b806000190482111561292357612923612992565b029392505050565b600081600019048311821515161561294557612945612992565b500290565b60008282101561295c5761295c612992565b500390565b600082612970576129706129a8565b500690565b6000600160ff1b82141561298b5761298b612992565b5060000390565b634e487b7160e01b600052601160045260246000fd5b634e487b7160e01b600052601260045260246000fd5b634e487b7160e01b600052603260045260246000fd5b634e487b7160e01b600052604160045260246000fd5b6001600160a01b03811681146129ff57600080fd5b50565b80151581146129ff57600080fdfe62616c616e63657343757272656e742e72657365727665314e6f726d616c697a65643a2062616c616e6365735461726765742e72657365727665314e6f726d616c697a65643a202062616c616e6365735461726765742e72657365727665304e6f726d616c697a65643a202062616c616e63657343757272656e742e72657365727665304e6f726d616c697a65643a20a26469706673582212206826c5726f46c4eb0bf580732e6e1d45168449003d07e0161a940d6fbe5d93be64736f6c63430008070033",
  "linkReferences": {},
  "deployedLinkReferences": {}
}